:060000000A128A11EA2F2A
:10001000831203132608F9002708FA002808FB00BA
:100020002908FC0002300310F90DFA0DFB0DFC0D40
:10003000FF3E031D132802300310F90DFA0DFB0DCE
:10004000FC0DFF3E031D1C287C08F3007B08F2001A
:100050007A08F1007908F0000030F7003D30F60032
:100060000930F5000030F4000A128A113F200A120C
:100070008A117008FF3E8316031392000800831252
:100080000313A101F31F452846285328F009F1095D
:10009000F209F309F00A0319F10A0319F20A031924
:1000A000F30AA101A10AF71F562857286628F40968
:1000B000F509F609F709F40A0319F50A0319F60A0E
:1000C0000319F70A0130F8007808A1060030A500EE
:1000D0000030A4000030A3000030A20073087204B6
:1000E00071047004031975287628C328A001A00A9A
:1000F00086280130F8000310F00DF10DF20DF30D1C
:10010000F80B7B280130F8007808A007F31F892836
:100110008A2879280130F8000310A20DA30DA40D40
:10012000A50DF80B8C2873087702031DA12872080F
:100130007602031DA12871087502031DA12870080D
:100140007402031CA428A528B4287008F4027108BE
:10015000031C710FF5027208031C720FF60273087C
:10016000031C730FF702221401300310F30CF20C7E
:10017000F10CF00CFF3E031DB5280130A002031D59
:10018000C228C3288A2821080319C728C828D328C9
:10019000A209A309A409A509A20A0319A30A03191C
:1001A000A40A0319A50A2508F3002408F20023086D
:1001B000F1002208F00008000430831603132D021A
:1001C000003003192C020318E628E72879292C08A7
:1001D00083120313A800831603132D08831203133D
:1001E000A900AA01AB0100300A128A1118220A12D2
:1001F0008A11831203132B08BD002A08BC002908AA
:10020000BB002808BA004430B9007F30B800C030C5
:10021000B7000030B6000A128A11D2220A128A11DF
:10022000831203133908D7003808D6003708D500E1
:100230003608D4000A128A15C9260A128A118312B6
:1002400003132608A8002708A9000030A91BFF30C7
:10025000AA00AB0001300A128A1118220A128A1170
:10026000831203132B08D3002A08D2002908D100D7
:100270002808D0000A128A11A5240A128A118312B2
:1002800003135308ED005208EC005108EB0050082E
:10029000EA000A128A156C270A128A1183120313C4
:1002A0006B0883160313AD00831203136A088316C9
:1002B0000313AC00831203139712831603132C1835
:1002C00062296629831203131716692983120313FF
:1002D0001712831603132D08AF002C08AE0003106D
:1002E000AF0CAE0C0310AF0CAE0C2E088312031330
:1002F000950008000430831603132D020030031903
:100300002C02031884298529172A2C088312031329
:10031000A800831603132D0883120313A900AA0152
:10032000AB0100300A128A1118220A128A118312B4
:1003300003132B08BD002A08BC002908BB002808AD
:10034000BA004430B9007F30B800C030B700003088
:10035000B6000A128A11D2220A128A1183120313DA
:100360003908D7003808D6003708D5003608D40039
:100370000A128A15C9260A128A1183120313260843
:10038000A8002708A9000030A91BFF30AA00AB0075
:1003900001300A128A1118220A128A1183120313D9
:1003A0002B08D3002A08D2002908D1002808D00041
:1003B0000A128A11A5240A128A1183120313530800
:1003C000ED005208EC005108EB005008EA000A1258
:1003D0008A156C270A128A11831203136B0883167D
:1003E0000313AD00831203136A0883160313AC00D2
:1003F000831203139D12831603132C18002A042A58
:10040000831203131D16072A831203131D1283166A
:1004100003132D08AF002C08AE000310AF0CAE0C78
:100420000310AF0CAE0C2E08831203139B000800C0
:1004300083120313B000300803191F2A202A342A1C
:10044000AB1F232A242A342A2809B2002909B30021
:100450002A09B4002B09B500B20A0319B30A03191B
:10046000B40A0319B50A3C2A2B08B5002A08B400BF
:100470002908B3002808B2002B082A0429042804FC
:10048000031D432A442A4D2A0030AB000030AA0045
:100490000030A9000030A800D12A9630B1005D2AB2
:1004A0000130AC002C08B10701300310B50CB40CBE
:1004B000B30CB20CFF3E031D552AFE303505031D5B
:1004C000622A632A502A7F2A0130AC002C08B10727
:1004D0000130B207003003180130B30700300318B1
:1004E0000130B407003003180130B50701300310A4
:1004F000B50CB40CB30CB20CFF3E031D772AFF30D1
:100500003505031D842A852A642A912A0130B10207
:100510000130AC000310B20DB30DB40DB50DAC0B32
:100520008A2AB41B942A952A9B2A02303102031886
:100530009A2A9B2A862A31189E2A9F2AA72AFF30A8
:10054000B205FF30B3057F30B405FF30B5050310A9
:10055000B10C3108AC00AD01AE01AF011830031091
:10056000AC0DAD0DAE0DAF0DFF3E031DAF2A2C0837
:10057000B2042D08B3042E08B4042F08B5043008C3
:100580000319C32AC42AC92AAB1FC72AC82AC92AE1
:10059000B5173508AB003408AA003308A9003208A3
:1005A000A8000800831203133D088039C7003D08E6
:1005B000BE003E07CE00BC1FDE2ADF2AE02A4E1412
:1005C0004E080319E42AE52AF52A4E0A031DE92AF2
:1005D000EA2AF22A0030BD000030BC000030BB0027
:1005E0000030BA00BC17BD01FD2A0030BD0000304C
:1005F000BC000030BB000030BA0039088039BE00B2
:100600003E08C7063908BE003E07CF00B81F092BB9
:100610000A2B0B2B4F144F0803190F2B102B202BD9
:100620004F0A031D142B152B1D2B0030B900003071
:10063000B8000030B7000030B600B817B901282B59
:100640000030B9000030B8000030B7000030B6000C
:100650003908380437043604031D2F2B302B492B5F
:100660000030BD000030BC000030BB000030BA00DC
:100670008030BC047F30BD044708BE003E08BD0486
:100680003D08B9003C08B8003B08B7003A08B6007E
:10069000A42C4E08031D4D2B4E2B572B0030B900B8
:1006A0000030B8000030B7000030B600A42C4E086F
:1006B000BE00BF013F08C1004F083E02C000031C3E
:1006C000C10340087F3EC80041080318013E003EB8
:1006D000C9003D08C6003C08C5003B08C4003A08F4
:1006E000C3000030BD000030BC000030BB00003053
:1006F000BA000030CD000030CC000030CB0000301C
:10070000CA00CF01CD2B4F080319872B882BA82BAC
:100710000130BE000310C30DC40DC50DC60DBE0BC8
:100720008A2B0130BE000310BA0DBB0DBC0DBD0DF0
:10073000BE0B932BCD1F9D2B9E2B9F2B3A1401306C
:10074000BE000310CA0DCB0DCC0DCD0DBE0BA12BE1
:1007500039084602031DB62B38084502031DB62B87
:1007600037084402031DB62B36084302031CB92B7D
:10077000BA2BC92B4D173608C3023708031C370F95
:10078000C4023808031C380FC5023908031C390F8E
:10079000C6020130BE003E08CF071A304F02031CCC
:1007A000D22BD32B832B460845044404430403195E
:1007B000DA2BDB2BFA2B4A14FA2B0130BE00031084
:1007C000BA0DBB0DBC0DBD0DBE0BDF2BCD1FE92B34
:1007D000EA2BEB2B3A140130BE000310CA0DCB0DEF
:1007E000CC0DCD0DBE0BED2BFF30C8070318C90A89
:1007F000FF30C907BC1FFD2BFE2BDD2BCF01CD1F0A
:10080000022C032C1F2CFF304A05BE00FF304B0585
:10081000BF00FF304C05C0007F304D05C1004108CE
:1008200040043F043E040319162C172C1A2CCF0148
:10083000CF0A1F2C3A1C1D2C1E2C1F2C172C4F08C6
:100840000319232C242C552C0130BA07003003182F
:100850000130BB07003003180130BC07003003181B
:100860000130BD073D1C352C362C552C3A08BE00F6
:100870003B08BF003C08C0003D08C1000130C20079
:10088000410DC10CC00CBF0CBE0CC20B402C41086A
:10089000BD004008BC003F08BB003E08BA00013064
:1008A000C8070318C90A0030C9074908803AFF0081
:1008B00080307F02031D5E2CFF304802031C612C38
:1008C000622C702CFF3083120313C8000030C90063
:1008D0000030BD000030BC000030BB000030BA006A
:1008E000831203134908803AFF0080307F02031D02
:1008F0007B2C0130480203187E2C7F2C8C2C831219
:100900000313C801C9010030BD000030BC00003035
:10091000BB000030BA00C701831203134808CE00A1
:100920004E1C932C942C962CBC179A2C7F30BE0016
:100930003E08BC054E08BE0003103E0CBD00470833
:10094000BE003E08BD04402B080083120313530869
:100950008039DD005308D8005807E300D21FB12CBE
:10096000B22CB32C631463080319B72CB82CC72C12
:10097000630A031DBC2CBD2CC52C0030D3000030F5
:10098000D2000030D1000030D000D217CF2C003080
:10099000D3000030D2000030D1000030D000570822
:1009A0008039D8005808DD065708D8005807E200FB
:1009B000D61FDB2CDC2CDD2C621462080319E12C21
:1009C000E22CF12C620A031DE62CE72CEF2C003000
:1009D000D7000030D6000030D5000030D400D61744
:1009E000F92C0030D7000030D6000030D5000030A0
:1009F000D40062080319FD2CFE2C032D6308031D8F
:100A0000022D032D0C2D0030D3000030D200003019
:100A1000D1000030D000E92F5008F00056080A122B
:100A20008A15A2260A128A11710883120313E9009B
:100A30007008E8006808D800D901DA01DB015B081A
:100A4000E1005A08E0005908DF005808DE00690894
:100A5000D800D901DA01DB015B08E7005A08E6009B
:100A60005908E5005808E4005108F00055080A123A
:100A70008A15A2260A128A11710883120313E9004B
:100A80007008E8006808D800D901DA01DB015808CD
:100A9000DE07590803110318013E0319502DDF0723
:100AA0005A0803110318013E0319572DE0075B088C
:100AB00003110318013E03195E2DE1076908D800F0
:100AC000D901DA01DB015808E407590803110318BA
:100AD000013E03196C2DE5075A0803110318013E66
:100AE0000319732DE6075B0803110318013E031970
:100AF0007A2DE7075208F00054080A128A15A22638
:100B00000A128A11710883120313E9007008E800C1
:100B10006808D800D901DA01DB015808DE07590856
:100B200003110318013E0319962DDF075A0803111C
:100B30000318013E03199D2DE0075B0803110318FC
:100B4000013E0319A42DE1076908D800D901DA0193
:100B5000DB015808E407590803110318013E031983
:100B6000B22DE5075A0803110318013E0319B92DE8
:100B7000E6075B0803110318013E0319C02DE707C0
:100B80000830D8000310DE0DDF0DE00DE10DD80BAD
:100B9000C22D5108F00054080A128A15A2260A1222
:100BA0008A11710883120313E9007008E8006808CD
:100BB000D8006908D900DA01DB015808DE075908B6
:100BC00003110318013E0319E62DDF075A0803112C
:100BD0000318013E0319ED2DE0075B08031103180C
:100BE000013E0319F42DE1075008F00055080A12E0
:100BF0008A15A2260A128A11710883120313E900CA
:100C00007008E8006808D8006908D900DA01DB013B
:100C10005808DE07590803110318013E0319112E65
:100C2000DF075A0803110318013E0319182EE007C5
:100C30005B0803110318013E03191F2EE10708305A
:100C4000D8000310DE0DDF0DE00DE10DD80B212ED5
:100C50005008F00054080A128A15A2260A128A11B6
:100C6000710883120313E9007008E8006808D800CF
:100C70006908D900DA01DB015808DE0759080311B9
:100C80000318013E0319452EDF075A080311031804
:100C9000013E03194C2EE0075B0803110318013EC7
:100CA0000319532EE1075108F00056080A128A155D
:100CB000A2260A128A11710883120313E900700830
:100CC000E8006808D8006908D900DA01DB01580893
:100CD000E407590803110318013E0319702EE507B4
:100CE0005A0803110318013E0319772EE6075B0823
:100CF00003110318013E03197E2EE7075208F00086
:100D000055080A128A15A2260A128A11710883123E
:100D10000313E9007008E8006808D8006908D900E2
:100D2000DA01DB015808E407590803110318013EF2
:100D300003199B2EE5075A0803110318013E0319F6
:100D4000A22EE6075B0803110318013E0319A92E22
:100D5000E7075208F00056080A128A15A2260A125E
:100D60008A11710883120313E9007008E80068080B
:100D7000D8006908D900DA01DB0108300310D80D6A
:100D8000D90DDA0DDB0DFF3E031DBE2E5808E4071A
:100D9000590803110318013E0319CF2EE5075A081D
:100DA00003110318013E0319D62EE6075B08031151
:100DB0000318013E0319DD2EE7075E08D8005F081F
:100DC000D9006008DA006108DB0018300310DB0C82
:100DD000DA0CD90CD80CFF3E031DE62E5808E407A8
:100DE000590803110318013E0319F72EE5075A08A5
:100DF00003110318013E0319FE2EE6075B080311D9
:100E00000318013E0319052FE7070830D800031027
:100E1000DE0DDF0DE00DE10DD80B072F6308620733
:100E2000D800D901D90D5808823EE80059080318A6
:100E3000013EFF3EE900392F0130D8000310E40DD8
:100E4000E50DE60DE70DD80B1E2FE11F282F292FEA
:100E50002A2F64140130D8000310DE0DDF0DE00DE1
:100E6000E10DD80B2C2FFF30E8070318E90AFF30FB
:100E7000E907E61F3C2F3D2F1C2FE201E11F412F08
:100E8000422F5E2FFF305E05D800FF305F05D9008E
:100E9000FF306005DA007F306105DB005B085A0433
:100EA000590458040319552F562F592FE201E20A0D
:100EB0005E2F641C5C2F5D2F5E2F562F6208031976
:100EC000622F632F942F0130E407003003180130A4
:100ED000E507003003180130E60700300318013041
:100EE000E707671C742F752F942F6408D8006508D6
:100EF000D9006608DA006708DB000130DC005B0D12
:100F0000DB0CDA0CD90CD80CDC0B7F2F5B08E7006C
:100F10005A08E6005908E5005808E4000130E807DF
:100F20000318E90A0030E9076908803AFF008030B9
:100F30007F02031D9D2FFF306802031CA02FA12FED
:100F4000AC2F7F3083120313E7008030E6000030BF
:100F5000E5000030E400DD2F831203136908803AB6
:100F6000FF0080307F02031DB72F01306802031895
:100F7000BA2FBB2FC72F003083120313E7000030B6
:100F8000E6000030E5000030E400DD01DD2F8312D3
:100F900003136808E300FF30E405FF30E5057F3008
:100FA000E6050030E705631CD62FD72FD82FE617AC
:100FB0006308D8000310580CE7005D08D8005808F3
:100FC000E7046708D3006608D2006508D10064080A
:100FD000D00008008313A830FD000E30FE0046301C
:100FE000FF00A03084000A128A1564260A128A11B2
:100FF00083160313B001B10183010A128A15892EE9
:101C8C000434003400340034E834033400340034B9
:101C9C0083120313971517151215831603130711C7
:101CAC000800831203139D151D15121583160313BB
:101CBC00871008007E088A007F0882000A128A15A5
:101CCC0060260A128A158000840A04087D0603190E
:101CDC000034FF0A0319FE0A642E8B170B170B1620
:101CEC008316031301178501860190308700880144
:101CFC00890106309F008312031385018601870139
:101D0C008801890108000A128A1573260A128A159D
:101D1C000A128A152F270A128A15F4308316031318
:101D2C00AC000130AD000A128A117A210A128A1510
:101D3C009E2E0A128A110028F800F401F501700891
:101D4C00F200F3017208F6007308F700781CAF2E4E
:101D5C00B02EB62E7608F4070318F50A7708F507A7
:101D6C0001300310F60DF70DFF3E031DB72E0310C7
:101D7C00F80C7808031DC32EC42EAC2E7508F10088
:101D8C007408F0000800831603132408F9002508D2
:101D9C00FA002608FB002708FC0002300310F90D9E
:101DAC00FA0DFB0DFC0DFF3E031DD42E7C08F30039
:101DBC007B08F2007A08F1007908F0000030F70097
:101DCC003D30F6000930F5000030F4000A128A119B
:101DDC003F200A128A15710883120313A70070089A
:101DEC00A6000800831203132608F9002708FA003E
:101DFC002808FB002908FC0002300310F90DFA0D2D
:101E0C00FB0DFC0DFF3E031D032F02300310F90DDB
:101E1C00FA0DFB0DFC0DFF3E031D0C2F7C08F3008F
:101E2C007B08F2007A08F1007908F0000030F70026
:101E3C003D30F6000930F5000030F4000A128A112A
:101E4C003F200A128A157008FF3E83160313920076
:101E5C000800003083120313A9000030A8000F30D3
:101E6C00A700A030A6000A128A15F8260A128A15B5
:101E7C00003083120313A9000030A8000F30A70014
:101E8C00A030A6000A128A1108200A128A15003006
:101E9C0083160313AC00AD000A128A11DC200A125F
:101EAC008A15003083160313AC00AD000A128A1198
:101EBC007A210A128A150A128A154E260A128A15D6
:101ECC000A128A1557260A128A1508000310831263
:101EDC0003136C0D6D0DEF006F08031D762F772F1C
:101EEC00802F0030ED000030EC000030EB000030B3
:101EFC00EA00FF2F6A0883160313A800831203134A
:101F0C006B0883160313A900831203136C08831642
:101F1C000313AA00831203136D0883160313AB007B
:101F2C001F300310AB0CAA0CA90CA80CFF3E031D10
:101F3C00972F280883120313EE00EC17FF30EA05E5
:101F4C00FF30EB05FF30EC050030ED059630EF026D
:101F5C00EF1FB12FB22FD02F6F08803A973E031886
:101F6C00B82FB92FBA2F772F01300310ED0CEC0CD2
:101F7C00EB0CEA0CFF3E031DBB2F01308316031341
:101F8C00A800280883120313EF07031DCE2FCF2FB1
:101F9C00BA2FEF2F20306F02031CD52FD62FEA2F2C
:101FAC00772F013083160313A80003108312031339
:101FBC00EA0DEB0DEC0DED0D83160313A80BDB2FC7
:101FCC00013083120313EF026F08031DEE2FEF2F66
:101FDC00D72F6E080319F32FF42FFF2FEA09EB0903
:101FEC00EC09ED09EA0A0319EB0A0319EC0A0319C7
:041FFC00ED0A0800E2
:08400000FF3FFF3FFF3FFF3FC0
:02400E00393F38
:00000001FF
