:060000000A128A110C280F
:10000800FE00030EF0000A08F1000A128A11F12F0F
:100018000A128A110F288317AC30FD001730FE0032
:10002800E430FF00903084000A128A1506200A1274
:100038008A11AC308400C6300A168A11B0270A1219
:100048008A118313CE308400EC300A168A11B02747
:100058000A128A11FA01FB0183010A128A1515286E
:100068008312031358088039E2005808DD005D0741
:10007800E800D71F40284128422868146808031957
:10008800462847285628680A031D4B284C28542818
:100098000030D8000030D7000030D6000030D5003E
:1000A800D7175E280030D8000030D7000030D600BF
:1000B8000030D5005C088039DD005D08E2065C0888
:1000C800DD005D07E300DB1F6A286B286C286314DA
:1000D80063080319702871288028630A031D75288E
:1000E80076287E280030DC000030DB000030DA00A3
:1000F8000030D900DB1788280030DC000030DB0036
:100108000030DA000030D900630803198C288D28E4
:1001180092286808031D912892289B280030D8004F
:100128000030D7000030D6000030D500782B5508B5
:10013800F2005B080A128A155C200A128A117308F9
:1001480083120313EE007208ED006D08DD00DE0176
:10015800DF01E0016008E7005F08E6005E08E500EF
:100168005D08E4006E08DD00DE01DF01E0016008E3
:10017800EC005F08EB005E08EA005D08E90056083D
:10018800F2005A080A128A155C200A128A117308AA
:1001980083120313EE007208ED006D08DD00DE0126
:1001A800DF01E0015D08E4075E0803110318013E62
:1001B8000319DF28E5075F0803110318013E031937
:1001C800E628E607600803110318013E0319ED2825
:1001D800E7076E08DD00DE01DF01E0015D08E907E1
:1001E8005E0803110318013E0319FB28EA075F089C
:1001F80003110318013E03190229EB0760080311D4
:100208000318013E03190929EC075708F200590899
:100218000A128A155C200A128A11730883120313C2
:10022800EE007208ED006D08DD00DE01DF01E0017F
:100238005D08E4075E0803110318013E0319252928
:10024800E5075F0803110318013E03192C29E60787
:10025800600803110318013E03193329E7076E08E4
:10026800DD00DE01DF01E0015D08E9075E0803113A
:100278000318013E03194129EA075F08031103180F
:10028800013E03194829EB07600803110318013ED2
:1002980003194F29EC070830DD000310E40DE50DC4
:1002A800E60DE70DDD0B51295608F20059080A1230
:1002B8008A155C200A128A11730883120313EE0050
:1002C8007208ED006D08DD006E08DE00DF01E00158
:1002D8005D08E4075E0803110318013E0319752938
:1002E800E5075F0803110318013E03197C29E60797
:1002F800600803110318013E03198329E70755080D
:10030800F2005A080A128A155C200A128A11730828
:1003180083120313EE007208ED006D08DD006E080D
:10032800DE00DF01E0015D08E4075E080311031841
:10033800013E0319A029E5075F0803110318013ED0
:100348000319A729E607600803110318013E0319DA
:10035800AE29E7070830DD000310E40DE50DE60DD2
:10036800E70DDD0BB0295508F20059080A128A1565
:100378005C200A128A11730883120313EE007208B4
:10038800ED006D08DD006E08DE00DF01E0015D08AC
:10039800E4075E0803110318013E0319D429E50791
:1003A8005F0803110318013E0319DB29E6076008FB
:1003B80003110318013E0319E229E7075608F20062
:1003C8005B080A128A155C200A128A1173088312C4
:1003D8000313EE007208ED006D08DD006E08DE0004
:1003E800DF01E0015D08E9075E0803110318013E1B
:1003F8000319FF29EA075F0803110318013E0319CF
:10040800062AEB07600803110318013E03190D2A99
:10041800EC075708F2005A080A128A155C200A12DB
:100428008A11730883120313EE007208ED006D0839
:10043800DD006E08DE00DF01E0015D08E9075E0807
:1004480003110318013E03192A2AEA075F0803115A
:100458000318013E0319312AEB076008031103183A
:10046800013E0319382AEC075708F2005B080A1204
:100478008A155C200A128A11730883120313EE008E
:100488007208ED006D08DD006E08DE00DF01E00196
:1004980008300310DD0DDE0DDF0DE00DFF3E031DFE
:1004A8004D2A5D08E9075E0803110318013E031988
:1004B8005E2AEA075F0803110318013E0319652A3B
:1004C800EB07600803110318013E03196C2AEC07B7
:1004D8006408DD006508DE006608DF006708E000E4
:1004E80018300310E00CDF0CDE0CDD0CFF3E031DA2
:1004F800752A5D08E9075E0803110318013E031910
:10050800862AEA075F0803110318013E03198D2A9A
:10051800EB07600803110318013E0319942AEC073E
:100528000830DD000310E40DE50DE60DE70DDD0BE9
:10053800962A68086307DD00DE01DE0D5D08823E4D
:10054800ED005E080318013EFF3EEE00C82A0130A8
:10055800DD000310E90DEA0DEB0DEC0DDD0BAD2A06
:10056800E71FB72AB82AB92A69140130DD00031039
:10057800E40DE50DE60DE70DDD0BBB2AFF30ED07B9
:100588000318EE0AFF30EE07EB1FCB2ACC2AAB2A62
:10059800E301E71FD02AD12AED2AFF306405DD00E8
:1005A800FF306505DE00FF306605DF007F30670538
:1005B800E00060085F045E045D040319E42AE52A8C
:1005C800E82AE301E30AED2A691CEB2AEC2AED2A62
:1005D800E52A63080319F12AF22A232B0130E907D7
:1005E800003003180130EA07003003180130EB0728
:1005F800003003180130EC076C1C032B042B232B51
:100608006908DD006A08DE006B08DF006C08E0009E
:100618000130E100600DE00CDF0CDE0CDD0CE10BBD
:100628000E2B6008EC005F08EB005E08EA005D082E
:10063800E9000130ED070318EE0A0030EE076E08F6
:10064800803AFF0080307F02031D2C2BFF306D02A3
:10065800031C2F2B302B3B2B7F3083120313EC0012
:100668008030EB000030EA000030E9006C2B831288
:1006780003136E08803AFF0080307F02031D462B6B
:1006880001306D020318492B4A2B562B0030831278
:100698000313EC000030EB000030EA000030E90002
:1006A800E2016C2B831203136D08E800FF30E905A3
:1006B800FF30EA057F30EB050030EC05681C652B40
:1006C800662B672BEB176808DD0003105D0CEC0048
:1006D8006208DD005D08EC046C08D8006B08D700E0
:1006E8006A08D6006908D500080083160313230892
:1006F8008039B0002308A8002807B200A21F852B64
:10070800862B872B3214320803198B2B8C2B9C2BAE
:10071800320A031D902B912B992B0030A300003037
:10072800A2000030A1000030A000A217A301A42B52
:100738000030A3000030A2000030A1000030A0006B
:1007480027088039B100310830060319AC2BAD2BCE
:10075800AE2B30172708A8002807B100A61FB52B15
:10076800B62BB72B311431080319BB2BBC2BCC2B60
:10077800310A031DC02BC12BC92B0030A700003044
:10078800A6000030A5000030A400A617A701D42BAE
:100798000030A7000030A6000030A5000030A400FB
:1007A800320831020318D92BDA2B002C301FDD2B2D
:1007B800DE2BE22B8030A8002808B0063208B300F0
:1007C8003108B2003308B1002008B3002408A000A3
:1007D8003308A4002108B3002508A1003308A500A8
:1007E8002208B3002608A2003308A6002308B30095
:1007F8002708A3003308A700B3013108A800A901FE
:100808002908AB0032082802AA00031CAB032B08F6
:10081800803AFF0080307F02031D142C1A302A0210
:10082800031C172C182C4F2C83160313230822049F
:1008380021042004031D212C232C0130242C0030FA
:10084800B3000030A3000030A2000030A100003047
:10085800A0003108B200572C331C332C342C3B2C0D
:100868003308A8000310280C0138B3003D2C0310EE
:10087800B30C201C402C412C422CB3170130A8008B
:10088800230DA30CA20CA10CA00CA80B442C013026
:10089800A8002808B2078316031331083202031C84
:1008A800562C572C302C301B5A2C5B2CA42C32087D
:1008B800031D5F2C602C692C0030A3000030A200BF
:1008C8000030A1000030A000D02D2408A007250882
:1008D80003110318013E0319722CA10726080311FE
:1008E8000318013E0319792CA207270803110318DE
:1008F800013E0319802CA307231C832C842C582D1C
:10090800331C872C882C8F2C3308A8000310280C44
:100918000138B300912C0310B30C201C942C952C97
:10092800962CB3170130A800230DA30CA20CA10C20
:10093800A00CA80B982C0130A8002808B207582D45
:100948002308803AFF002708803A7F02031DB62C4F
:1009580026082202031DB62C25082102031DB62CE9
:10096800240820020318B92CBA2C122DFF30A80035
:10097800FF30A900FF30AA00FF30AB002408AC000C
:100988002508AD002608AE002708AF002008AC02F5
:100998002108031C210FD12CD22CAD022208031CE4
:1009A800220FD72CD82CAE022308031C230FDD2CD2
:1009B800DE2CAF022C08A8072D0803182D0FE52CF4
:1009C800E62CA9072E0803182E0FEB2CEC2CAA07EF
:1009D8002F0803182F0AAB072B08A3002A08A20028
:1009E8002908A1002808A0008030A8002808B0061F
:1009F800B309B30A3308031D022D032D202D01303E
:100A0800A007003003180130A10700300318013097
:100A1800A207003003180130A307202D2408A002E4
:100A28002508031C250FA1022608031C260FA20275
:100A38002708031C270FA3022308220421042004EB
:100A4800031D272D282D542D3308031D2C2D2D2D46
:100A5800542D0030A3000030A2000030A100003067
:100A6800A000D02D0130A8000310A00DA10DA20DEB
:100A7800A30DA80B382DB31F422D432D442D201450
:100A8800331C472D482D4B2D0314B30D4D2D03104A
:100A9800B30D32080319512D522D542D0130B202D5
:100AA800A21F572D582D362DB101B31F5C2D5D2D7A
:100AB8006B2D33087F390319622D632D662DB10123
:100AC800B10A6B2D201C692D6A2D6B2D632D310801
:100AD80003196F2D702DA42D0130A00700300318C5
:100AE8000130A107003003180130A20700300318B5
:100AF8000130A307231C812D822DA42D2008A800D6
:100B08002108A9002208AA002308AB000130AC0084
:100B18002B0DAB0CAA0CA90CA80CAC0B8C2D2B081C
:100B2800A3002A08A2002908A1002808A000320A68
:100B380003199F2DA02DA42D0130A8002808B20765
:100B4800320A0319A82DA92DAE2D3208031DAD2D8B
:100B5800AE2DBC2D0030A3000030A2000030A10053
:100B68000030A0003208031DBA2DBB2DBC2DB001EA
:100B7800321CBF2DC02DC22DA217C62D7F30A80054
:100B88002808A2053208A8000310280CA300B01FEB
:100B9800CE2DCF2DD02DA31708008316031352088E
:100BA800063EDC0053080318013EFF3EDD005608F0
:100BB8005C02D8005708031C570A5D02D900660872
:100BC8006807C60067080318670A6907C70064084A
:100BD8004607C80065080318650A4707C900620880
:100BE8004807CA0063080318630A4907CB0060086E
:100BF8004A07CC0061080318610A4B07CD005E085C
:100C08004C07DA005F0803185F0A4D07DB005D0830
:100C1800D7005C08D6006108DF006008DE006308C2
:100C2800E1006208E0006508E3006408E200670884
:100C3800E5006608E4006908E7006808E6005D0862
:100C4800E9005C08E8005C0883120313AD00831612
:100C580003135D0883120313AE000030AE1BFF3090
:100C6800AF00B00001300A128A1502240A128A1154
:100C7800831203133008DC002F08DB002E08DA008B
:100C88002D08D9003E30D8007530D700C230D600C4
:100C98008F30D5000A128A1134200A128A11831261
:100CA8000313580883160313A70083120313570866
:100CB80083160313A600831203135608831603131F
:100CC800A50083120313550883160313A4005808BC
:100CD80083120313AD0083160313590883120313F9
:100CE800AE000030AE1BFF30AF00B00001300A127A
:100CF8008A1502240A128A11831203133008DC00B1
:100D08002F08DB002E08DA002D08D9004030D80063
:100D18009430D7001830D6009330D5000A128A11C3
:100D280034200A128A1183120313580883160313F6
:100D3800A30083120313570883160313A200831218
:100D48000313560883160313A100831203135508CF
:100D580083160313A0000A128A1179230A128A1132
:100D680083160313230883160317C9008316031376
:100D7800220883160317C800831603132108831655
:100D88000317C70083160313200883160317C6002A
:100D9800490883160313A700831603174808831608
:100DA8000313A60083160317470883160313A50029
:100DB80083160317460883160313A4005A088312E0
:100DC8000313AD00831603135B0883120313AE00ED
:100DD8000030AE1BFF30AF00B00001300A128A1598
:100DE80002240A128A11831203133008DC002F0828
:100DF800DB002E08DA002D08D9003B30D80023305C
:100E0800D700D730D6000A30D5000A128A1134200C
:100E18000A128A1183120313580883160313A300B6
:100E280083120313570883160313A20083120313B4
:100E3800560883160313A10083120313550883165B
:100E48000313A0000A128A1179230A128A11831641
:100E580003132308B7002208B6002108B5002008AC
:100E6800B4000A128A15A1210A128A1183160313E3
:100E7800350883160317CB0083160313340883162B
:100E88000317CA004B08803AFF0080307F02031D19
:100E98004F2F65304A02031C522F532F5A2F6430AC
:100EA80083160317CA000030CB006F2F8316031771
:100EB8004B08803AFF007F307F02031D652F9C306E
:100EC8004A020318682F692F6F2F9C308316031767
:100ED800CA00FF30CB0083160317CB1F742F752F62
:100EE800912F643083160313C2000030C3008316A9
:100EF80003174A08643E83160313C40083160317B6
:100F08004B080318013E003E83160313C5000A125E
:100F18008A11AE270A128A11AD2F64308316031383
:100F2800C600831603174A08831603134602C20035
:100F3800831603174B090318013E83160313C300D6
:100F48006430C4000030C5000A128A11AE270A12A4
:100F58008A11080083160313C31BB32FB42FB92FAC
:100F68008312031306158611C42F83120313061167
:100F7800861583160313C209C309C20A0319C30AD3
:100F8800831603134308BF004208BE000A128A15DD
:100F9800B6220A128A1183160313C51BD42FD52F24
:100FA800DA2F8312031306168612E52F8312031312
:100FB8000612861683160313C409C509C40A031941
:100FC800C50A831603134508BF004408BE000A1269
:100FD8008A155C230A128A1108008B1CF42FF52F3E
:100FE800F62F8B1071088A00700E8300FE0E7E0E9D
:020FF8000900EE
:101004007E088A007F0882000A128A1502200A12CA
:101014008A158000840A04087D0603190034FF0A37
:101024000319FE0A06280A168A11CA270A128A1503
:101034000A128A1564210A128A150A168A11A92726
:101044000A128A150A128A1585200A128A150A12AA
:101054008A15BC240A128A150A128A11D1250A1289
:101064008A1529280A128A110C28F601F701721C24
:101074003C283D2843287408F6070318F70A750826
:10108400F70701300310F40DF50DFF3E031D44284E
:1010940001300310F30CF20CFF3E031D4B287208C1
:1010A4007304031D5628572839287708F300760857
:1010B400F200080083120313A400A001A101720826
:1010C400F400F5017408A2007508A300241C6B2821
:1010D4006C2872282208A0070318A10A2308A10774
:1010E40001300310A20DA30DFF3E031D732803104E
:1010F400A40C2408031D7F28802868282108F300F5
:101104002008F200080083120313881B8A288B2806
:101114009628081F8E288F289628013083160317D7
:10112400BA000030BB00B828881F99289A28A5283F
:10113400081B9D289E28A528023083160317BA0091
:101144000030BB00B828881FA828A928B428081F85
:10115400AC28AD28B428033083160317BA00003036
:10116400BB00B82883160317BA01BB010800831219
:1011740003132708AB002808AC002908AD002A088F
:10118400AE0002300310AB0DAC0DAD0DAE0DFF3E45
:10119400031DC42802300310AB0DAC0DAD0DAE0D14
:1011A400FF3E031DCD282E08F5002D08F4002C0861
:1011B400F3002B08F2000030F9003D30F80009304C
:1011C400F7000030F6000A128A1519220A128A154D
:1011D4007208FF3E83160313920008008312031360
:1011E4002708AB002808AC002908AD002A08AE0087
:1011F40002300310AB0DAC0DAD0DAE0DFF3E031D63
:10120400FB2802300310AB0DAC0DAD0DAE0DFF3E4F
:10121400031D04292E08F5002D08F4002C08F30002
:101224002B08F2000030F9003D30F8000930F700D7
:101234000030F6000A128A1519220A128A15720859
:10124400FF3E831603139200080083160317280831
:1012540083120313A90083160317290883120313A7
:10126400AA00831603172A0883120313AB008316FC
:1012740003172B0883120313AC0002300310A90DCB
:10128400AA0DAB0DAC0DFF3E031D40292C08F50043
:101294002B08F4002A08F3002908F2000030F900B2
:1012A4003D30F8000930F7000030F6000A128A15C4
:1012B40019220A128A15730883120313A8007208EC
:1012C400A7000800003083120313AA000030A9000D
:1012D4000F30A800A030A7000A128A15B9200A12FC
:1012E4008A15003083120313AA000030A9000F30BE
:1012F400A800A030A7000A128A15F0200A128A1545
:10130400003083160313BE00BF000A128A15B622EA
:101314000A128A15003083160313BE00BF000A1296
:101324008A155C230A128A150A168A11B8270A122A
:101334008A150A168A11C1270A128A150800031091
:1013440083160313360D370DBD003D08031DAB296D
:10135400AC29B5290030B7000030B6000030B50024
:101364000030B400182A3408B8003508B90036082B
:10137400BA003708BB001F300310BB0CBA0CB90C01
:10138400B80CFF3E031DBE293808BC00B617FF3059
:10139400B405FF30B505FF30B6050030B70596300B
:1013A400BD02BD1FD629D729F1293D08803A973EB1
:1013B4000318DD29DE29DF29AC2901300310B70C1D
:1013C400B60CB50CB40CFF3E031DE0290130B80087
:1013D4003808BD07031DEF29F029DF29082A20302A
:1013E4003D02031CF629F729032AAC290130B80071
:1013F4000310B40DB50DB60DB70DB80BFA290130B5
:10140400BD023D08031D072A082AF8293C080319D0
:101414000C2A0D2A182AB409B509B609B709B40A61
:101424000319B50A0319B60A0319B70A0800831287
:101434000313A201F51F1F2A202A2D2AF209F309FA
:10144400F409F509F20A0319F30A0319F40A031952
:10145400F50AA201A20AF91F302A312A402AF60904
:10146400F709F809F909F60A0319F70A0319F80A3A
:101474000319F90A0130A0002008A2060030A600D2
:101484000030A5000030A4000030A30075087404E7
:101494007304720403194F2A502A9D2AA101A10A38
:1014A400602A0130A0000310F20DF30DF40DF50DC8
:1014B400A00B552A0130A0002008A107F51F632ABC
:1014C400642A532A0130A0000310A30DA40DA50D16
:1014D400A60DA00B662A75087902031D7B2A7408E1
:1014E4007802031D7B2A73087702031D7B2A720886
:1014F4007602031C7E2A7F2A8E2A7208F60273085B
:10150400031C730FF7027408031C740FF8027508A8
:10151400031C750FF902231401300310F50CF40CAD
:10152400F30CF20CFF3E031D8F2A0130A102031DB0
:101534009C2A9D2A642A22080319A12AA22AAD2AD8
:10154400A309A409A509A609A30A0319A40A03194E
:10155400A50A0319A60A2608F5002508F40024089C
:10156400F3002308F20008000430831603133F023B
:10157400003003193E020318C02AC12A5B2B3E081F
:1015840083120313AD00831603133F08831203135E
:10159400AE00AF01B00100300A128A1502240A120B
:1015A4008A15831203133008C2002F08C1002E08C5
:1015B400C0002D08BF004430BE007F30BD00C030E5
:1015C400BC000030BB000A128A152D260A128A15A7
:1015D400831203133E08DC003D08DB003C08DA00FC
:1015E4003B08D9000A128A1527210A128A15831288
:1015F40003132708AD002808AE000030AE1BFF30EF
:10160400AF00B00001300A128A1502240A128A15AA
:10161400831203133008D8002F08D7002E08D600F1
:101624002D08D5000A128A1134200A128A15831251
:101634000313580883160313B700831203135708C0
:1016440083160313B6008312031356088316031379
:10165400B50083120313550883160313B4000A124A
:101664008A15A1210A128A15831603133508BF00AF
:101674003408BE00831203139712831603133E1813
:10168400442B482B8312031317164B2B831203137B
:101694001712831603133F08C1003E08C00003104D
:1016A400C10CC00C0310C10CC00C400883120313FE
:1016B400950008000430831603133F020030031919
:1016C4003E020318662B672B012C3E08831203137A
:1016D400AD00831603133F0883120313AE00AF015A
:1016E400B00100300A128A1502240A128A158312E4
:1016F40003133008C2002F08C1002E08C0002D08B3
:10170400BF004430BE007F30BD00C030BC0000309C
:10171400BB000A128A152D260A128A158312031396
:101724003E08DC003D08DB003C08DA003B08D90039
:101734000A128A1527210A128A158312031327080D
:10174400AD002808AE000030AE1BFF30AF00B00083
:1017540001300A128A1502240A128A15831203130D
:101764003008D8002F08D7002E08D6002D08D50041
:101774000A128A1134200A128A1583120313580894
:1017840083160313B7008312031357088316031336
:10179400B60083120313560883160313B50083128D
:1017A4000313550883160313B4000A128A15A121E2
:1017B4000A128A15831603133508BF003408BE00C5
:1017C400831203139D12831603133E18EA2BEE2B88
:1017D400831203131D16F12B831203131D12831698
:1017E40003133F08C1003E08C0000310C10CC00C25
:1017F4000310C10CC00C4008831203139B000800A3
:1018040083120313B50035080319092C0A2C1E2C66
:10181400B01F0D2C0E2C1E2C2D09B7002E09B8005C
:101824002F09B9003009BA00B70A0319B80A031915
:10183400B90A0319BA0A262C3008BA002F08B900CD
:101844002E08B8002D08B70030082F042E042D04EC
:10185400031D2D2C2E2C372C0030B0000030AF008F
:101864000030AE000030AD00BB2C9630B600472CE3
:101874000130B1003108B60701300310BA0CB90CBD
:10188400B80CB70CFF3E031D3F2CFE303A05031D78
:101894004C2C4D2C3A2C692C0130B1003108B60780
:1018A4000130B707003003180130B80700300318BF
:1018B4000130B907003003180130BA0701300310B2
:1018C400BA0CB90CB80CB70CFF3E031D612CFF30E9
:1018D4003A05031D6E2C6F2C4E2C7B2C0130B60266
:1018E4000130B1000310B70DB80DB90DBA0DB10B2D
:1018F400742CB91B7E2C7F2C852C023036020318E5
:10190400842C852C702C3618882C892C912CFF3033
:10191400B705FF30B8057F30B905FF30BA050310AD
:10192400B60C3608B100B201B301B401183003108B
:10193400B10DB20DB30DB40DFF3E031D992C31084A
:10194400B7043208B8043308B9043408BA043508B3
:101954000319AD2CAE2CB32CB01FB12CB22CB32C6C
:10196400BA173A08B0003908AF003808AE00370893
:10197400AD00080083120313080E0139A700A80163
:10198400270883160317BC00831203132808831641
:101994000317BD0083120313080CA700A70C270C20
:1019A4000139A800A901280883160317BE00831271
:1019B4000313290883160317BF0083120313080CAB
:1019C400A700270C0139A800A901280883160317CA
:1019D400C00083120313290883160317C10083125E
:1019E4000313080C0139A700A8012708831603175D
:1019F400C20083120313280883160317C30083123B
:101A0400031308080139A700A80127088316031740
:101A1400C40083120313280883160317C5003D0866
:101A2400F3003C08F2009030F4000130F5000A1293
:101A34008A1537200A128A15720883120313A70025
:101A44007308A800831603173F08F3003E08F2004A
:101A54002C30F4000130F5000A128A1537200A12DE
:101A64008A157208831203132707A9007308031841
:101A7400730A2807AA00831603174308F3004208D1
:101A8400F2002C30F4000130F5000A128A153720D8
:101A94000A128A157208831203132907831603177F
:101AA400B40073080318730A831203132A078316F6
:101AB4000317B500B601B51BB6033608B7000630E8
:101AC400BC3E84008317000883120313A700840A12
:101AD4000008A8000310A70DA80D831603173E08DD
:101AE400831203132707A900831603173F0803185B
:101AF4003F0A831203132807AA0083160317440816
:101B0400831203132907AB00831603174508031830
:101B1400450A831203132A07AC00831603173C08F3
:101B2400831203132B0783160317B0003D08031811
:101B34003D0A831203132C0783160317B100B20165
:101B4400B11BB2033208B3003308F5003208F400C5
:101B54003108F3003008F2003708F9003608F800BD
:101B64003508F7003408F6000A128A1519220A12F9
:101B74008A15750883160313D5007408D4007308F6
:101B8400D3007208D200D11BD82D5108031DD72DC4
:101B94005008031DD72D4F08031DD72DC9304E0201
:101BA400031DD42D0318D72DD82DF22D831603131E
:101BB400520A031DE72D530A031DE72D540A031D82
:101BC400E72D550A031DE72DE82DF22D003083166D
:101BD4000313D5000030D4000030D3000030D2000D
:101BE40083160313D11B072E5108031D082E50081A
:101BF400031D082E01304F02031D042EF4304E0243
:101C0400031D042E031C072E082E222E83160313F5
:101C1400520A031D172E530A031D172E540A031DBF
:101C2400172E550A031D172E182E222E0030831648
:101C34000313D5000030D4000230D300BC30D200EE
:101C4400831603135508D1005408D0005308CF005D
:101C54005208CE0008008312031342088039CC00D6
:101C64004208C3004307D300C11F392E3A2E3B2E2E
:101C74005314530803193F2E402E502E530A031DAC
:101C8400442E452E4D2E0030C2000030C1000030DD
:101C9400C0000030BF00C117C201582E0030C2007E
:101CA4000030C1000030C0000030BF003E08803961
:101CB400C3004308CC063E08C3004307D400BD1F3D
:101CC400642E652E662E5414540803196A2E6B2E46
:101CD4007B2E540A031D6F2E702E782E0030BE000A
:101CE4000030BD000030BC000030BB00BD17BE0199
:101CF400832E0030BE000030BD000030BC00003038
:101D0400BB003E083D043C043B04031D8A2E8B2E7D
:101D1400A42E0030C2000030C1000030C0000030EA
:101D2400BF008030C1047F30C2044C08C3004308A4
:101D3400C2044208BE004108BD004008BC003F0880
:101D4400BB00FF2F5308031DA82EA92EB22E00306E
:101D5400BE000030BD000030BC000030BB00FF2FCF
:101D64005308C300C4014408C60054084302C50014
:101D7400031CC60345087F3ECD0046080318013EF8
:101D8400003ECE004208CB004108CA004008C9000A
:101D94003F08C8000030C2000030C1000030C0005D
:101DA4000030BF000030D2000030D1000030D0003D
:101DB4000030CF00D401282F54080319E22EE32E5B
:101DC400032F0130C3000310C80DC90DCA0DCB0D7C
:101DD400C30BE52E0130C3000310BF0DC00DC10DB0
:101DE400C20DC30BEE2ED21FF82EF92EFA2E3F147D
:101DF4000130C3000310CF0DD00DD10DD20DC30B94
:101E0400FC2E3E084B02031D112F3D084A02031D00
:101E1400112F3C084902031D112F3B084802031CE3
:101E2400142F152F242F52173B08C8023C08031CFB
:101E34003C0FC9023D08031C3D0FCA023E08031CA7
:101E44003E0FCB020130C3004308D4071A305402BA
:101E5400031C2D2F2E2FDE2E4B084A044904480460
:101E64000319352F362F552F4F14552F0130C3002A
:101E74000310BF0DC00DC10DC20DC30B3A2FD21FED
:101E8400442F452F462F3F140130C3000310CF0DBC
:101E9400D00DD10DD20DC30B482FFF30CD07031841
:101EA400CE0AFF30CE07C11F582F592F382FD40127
:101EB400D21F5D2F5E2F7A2FFF304F05C300FF30F6
:101EC4005005C400FF305105C5007F305205C600DF
:101ED40046084504440443040319712F722F752FD7
:101EE400D401D40A7A2F3F1C782F792F7A2F722F9E
:101EF400540803197E2F7F2FB02F0130BF07003005
:101F040003180130C007003003180130C107003046
:101F140003180130C207421C902F912FB02F3F08A5
:101F2400C3004008C4004108C5004208C60001308F
:101F3400C700460DC60CC50CC40CC30CC70B9B2FA5
:101F44004608C2004508C1004408C0004308BF0059
:101F54000130CD070318CE0A0030CE074E08803A70
:101F6400FF0080307F02031DB92FFF304D02031C98
:101F7400BC2FBD2FCB2FFF3083120313CD000030B5
:101F8400CE000030C2000030C1000030C00000307C
:101F9400BF00831203134E08803AFF0080307F0293
:101FA400031DD62F01304D020318D92FDA2FE72F46
:101FB40083120313CD01CE010030C2000030C100F2
:101FC4000030C0000030BF00CC01831203134D0861
:101FD400D300531CEE2FEF2FF12FC117F52F7F30B5
:101FE400C3004308C1055308C3000310430CC200D7
:0C1FF4004C08C3004308C2049B2E0800E8
:102F520083120313051CAE2FAF2FA92F08006400A4
:102F62008001840A0406031900340406B12F831277
:102F7200031397151715121583160313071108006B
:102F8200831203139D151D15121583160313871043
:102F920008008B170B170B168316031301170F303C
:102FA20085000330860090308700FF308800890159
:102FB20006309F0083120313850186018701880171
:102FC2008901071408000A34D73423343B3493347C
:102FD2001834943440348F34C23475343E3404345B
:102FE200003400340034FA34003455340034AF3441
:0E2FF200003464340034E83403340034003416
:08400000FF3FFF3FFF3FFF3FC0
:02400E00393F38
:00000001FF
