:060000000A128A1110280B
:10000800FE00030E83120313E5000A08E6007F08CA
:10001800E7000A168A11232F0A128A111328831758
:10002800F030FD001F30FE005930FF00EC30840036
:100038000A168A1572270A128A114630FD001F30E7
:10004800FE008130FF00323084000A168A157227BC
:100058000A128A1183137030FD000830FE00033045
:10006800FF006C3084000A168A1572270A128A115A
:100078008317D4308400EC300A168A155D270A12DB
:100088008A111030840032300A168A155D270A1248
:100098008A1183010A168A115C28831603136908DA
:1000A800803983160317950083160313690883168E
:1000B8000317900010079B0083160313E81F652899
:1000C80066286928831603171B14831603171B0851
:1000D80003196F28702882281B0A031D74287528A5
:1000E8007F28003083160313E9000030E800003051
:1000F800E7000030E6000313E8178C280030831669
:100108000313E9000030E8000030E7000030E600A3
:100118006D0880398316031790001008950683161A
:1001280003136D0883160317900010079A008316AF
:100138000313EC1FA028A128A428831603171A1458
:10014800831603171A080319AA28AB28BD281A0A08
:10015800031DAF28B028BA28003083160313ED001A
:100168000030EC000030EB000030EA000313EC171D
:10017800C728003083160313ED000030EC00003070
:10018800EB000030EA00831603171A080319CD287C
:10019800CE28D3281B08031DD228D328DE280030F8
:1001A80083160313E9000030E8000030E700003050
:1001B800E600112C831603136608A0006C080A16C3
:1001C8008A15D7270A128A11831603132108831662
:1001D8000317A10083160313200883160317A00032
:1001E80020089000910192019301130899001208C8
:1001F80098001108970010089600210890009101B6
:100208009201930113089F0012089E0011089D0097
:1002180010089C00831603136708A0006B080A16D1
:100228008A15D7270A128A11831603132108831601
:100238000317A10083160313200883160317A000D1
:100248002008900091019201930110089607110867
:1002580003110318013E03193229970712080311E5
:100268000318013E031939299807130803110318C5
:10027800013E031940299907210890009101920134
:10028800930110089C07110803110318013E031974
:100298004E299D07120803110318013E0319552919
:1002A8009E07130803110318013E03195C299F07D1
:1002B800831603136808A0006A080A168A15D72748
:1002C8000A128A1183160313210883160317A10043
:1002D80083160313200883160317A0002008900034
:1002E8009101920193011008960711080311031850
:1002F800013E031980299707120803110318013ECC
:10030800031987299807130803110318013E0319D5
:100318008E299907210890009101920193011008F4
:100328009C07110803110318013E03199C299D0716
:10033800120803110318013E0319A3299E07130885
:1003480003110318013E0319AA299F0708309000DA
:100358000310960D970D980D990D900BAC298316E7
:1003680003136708A0006A080A168A15D7270A1215
:100378008A1183160313210883160317A100831615
:100388000313200883160317A000200890002108F3
:1003980091009201930110089607110803110318A0
:1003A800013E0319D8299707120803110318013EC3
:1003B8000319DF299807130803110318013E0319CD
:1003C800E6299907831603136608A0006B080A1626
:1003D8008A15D7270A128A11831603132108831650
:1003E8000317A10083160313200883160317A00020
:1003F80020089000210891009201930110089607A7
:10040800110803110318013E03190B2A9707120854
:1004180003110318013E0319122A98071308031140
:100428000318013E0319192A990708309000031090
:10043800960D970D980D990D900B1B2A8316031393
:100448006608A0006A080A168A15D7270A128A11B0
:1004580083160313210883160317A10083160313B9
:10046800200883160317A000200890002108910097
:100478009201930110089607110803110318013E11
:100488000319472A9707120803110318013E031995
:100498004E2A9807130803110318013E0319552A19
:1004A8009907831603136708A0006C080A168A15B3
:1004B800D7270A128A1183160313210883160317F4
:1004C800A10083160313200883160317A000200831
:1004D8009000210891009201930110089C071108CF
:1004E80003110318013E03197A2A9D071208031104
:1004F8000318013E0319812A9E07130803110318E4
:10050800013E0319882A9F07831603136808A00071
:100518006B080A168A15D7270A128A11831603133D
:10052800210883160317A1008316031320088316D6
:100538000317A00020089000210891009201930160
:1005480010089C07110803110318013E0319AD2A6E
:100558009D07120803110318013E0319B42A9E07C8
:10056800130803110318013E0319BB2A9F078316BA
:1005780003136808A0006C080A168A15D7270A1200
:100588008A1183160313210883160317A100831603
:100598000313200883160317A000200890002108E1
:1005A80091009201930108300310900D910D920D66
:1005B800930DFF3E031DD82A10089C07110803114C
:1005C8000318013E0319E92A9D07120803110318AD
:1005D800013E0319F02A9E07130803110318013E70
:1005E8000319F72A9F0716089000170891001808A2
:1005F80092001908930018300310930C920C910C78
:10060800900CFF3E031D002B10089C0711080311D6
:100618000318013E0319112B9D0712080311031833
:10062800013E0319182B9E07130803110318013EF6
:1006380003191F2B9F07083090000310960D970D84
:10064800980D990D900B212B1B081A07900091010A
:10065800910D1008823EA00011080318013EFF3ECC
:10066800A100532B0130900003109C0D9D0D9E0D91
:100678009F0D900B382B991F422B432B442B1C1496
:10068800013090000310960D970D980D990D900B61
:10069800462BFF30A0070318A10AFF30A1079E1FB1
:1006A800562B572B362B9A01991F5B2B5C2B782BDB
:1006B800FF3016059000FF3017059100FF30180530
:1006C80092007F30190593001308120411041004D6
:1006D80003196F2B702B732B9A019A0A782B1C1C09
:1006E800762B772B782B702B1A0803197C2B7D2BF4
:1006F800AE2B01309C070030031801309D070030F5
:10070800031801309E070030031801309F071F1C93
:100718008E2B8F2BAE2B1C0890001D0891001E08F5
:1007280092001F08930001309400130D930C920C53
:10073800910C900C940B992B13089F0012089E00A3
:1007480011089D0010089C000130A0070318A10A99
:100758000030A1072108803AFF0080307F02031D86
:10076800B72BFF302002031CBA2BBB2BC62B7F30C4
:10077800831603179F0080309E0000309D000030D4
:100788009C00F72B831603172108803AFF0080305E
:100798007F02031DD12B013020020318D42BD52B47
:1007A800E12B0030831603179F0000309E000030B5
:1007B8009D0000309C009501F72B83160317200835
:1007C8009B00FF309C05FF309D057F309E05003063
:1007D8009F051B1CF02BF12BF22B9E171B0890007A
:1007E8000310100C9F001508900010089F041F08A4
:1007F80083160313E900831603171E0883160313D1
:10080800E800831603171D0883160313E7008316F1
:1008180003171C0883160313E6000800831203134A
:1008280041088039CB004108C6004607D100C01FE7
:100838001E2C1F2C202C511451080319242C252C54
:10084800342C510A031D292C2A2C322C0030C100CB
:100858000030C0000030BF000030BE00C0173C2C84
:100868000030C1000030C0000030BF000030BE00C2
:1008780045088039C6004608CB064508C600460725
:10088800D000C41F482C492C4A2C50145008031976
:100898004E2C4F2C5E2C500A031D532C542C5C2CD0
:1008A8000030C5000030C4000030C3000030C20072
:1008B800C417662C0030C5000030C4000030C300E7
:1008C8000030C200500803196A2C6B2C702C510898
:1008D800031D6F2C702C792C0030C1000030C00033
:1008E8000030BF000030BE00562F3E08F00044081C
:1008F8000A168A15B0270A128A117108831203137F
:10090800D7007008D6005608C600C701C801C9013B
:100918004908CF004808CE004708CD004608CC005B
:100928005708C600C701C801C9014908D5004808C9
:10093800D4004708D3004608D2003F08F000430817
:100948000A168A15B0270A128A117108831203132E
:10095800D7007008D6005608C600C701C801C901EB
:100968004608CC07470803110318013E0319BD2C9C
:10097800CD07480803110318013E0319C42CCE07FC
:10098800490803110318013E0319CB2CCF07570858
:10099800C600C701C801C9014608D20747080311A4
:1009A8000318013E0319D92CD3074808031103186B
:1009B800013E0319E02CD407490803110318013E2E
:1009C8000319E72CD5074008F00042080A168A15D3
:1009D800B0270A128A11710883120313D70070080E
:1009E800D6005608C600C701C801C9014608CC0789
:1009F800470803110318013E0319032DCD074808C2
:100A080003110318013E03190A2DCE0749080311E3
:100A18000318013E0319112DCF075708C600C70157
:100A2800C801C9014608D207470803110318013E47
:100A380003191F2DD307480803110318013E031992
:100A4800262DD407490803110318013E03192D2D3B
:100A5800D5070830C6000310CC0DCD0DCE0DCF0D37
:100A6800C60B2F2D3F08F00042080A168A15B0273A
:100A78000A128A11710883120313D7007008D6006E
:100A88005608C6005708C700C801C9014608CC0760
:100A9800470803110318013E0319532DCD074808D1
:100AA80003110318013E03195A2DCE0749080311F3
:100AB8000318013E0319612DCF073E08F0004308D3
:100AC8000A168A15B0270A128A11710883120313AD
:100AD800D7007008D6005608C6005708C700C801D6
:100AE800C9014608CC07470803110318013E03193A
:100AF8007E2DCD07480803110318013E0319852DE3
:100B0800CE07490803110318013E03198C2DCF079E
:100B18000830C6000310CC0DCD0DCE0DCF0DC60B81
:100B28008E2D3E08F00042080A168A15B0270A12D0
:100B38008A11710883120313D7007008D60056086B
:100B4800C6005708C700C801C9014608CC074708AE
:100B580003110318013E0319B22DCD0748080311EC
:100B68000318013E0319B92DCE07490803110318CC
:100B7800013E0319C02DCF073F08F00044080A16AC
:100B88008A15B0270A128A11710883120313D70035
:100B98007008D6005608C6005708C700C801C90122
:100BA8004608D207470803110318013E0319DD2D33
:100BB800D307480803110318013E0319E42DD4078D
:100BC800490803110318013E0319EB2DD507400806
:100BD800F00043080A168A15B0270A128A1171080C
:100BE80083120313D7007008D6005608C6005708AA
:100BF800C700C801C9014608D207470803110318EE
:100C0800013E0319082ED307480803110318013EB3
:100C180003190F2ED407490803110318013E0319BD
:100C2800162ED5074008F00044080A168A15B02782
:100C38000A128A11710883120313D7007008D600AC
:100C48005608C6005708C700C801C9010830031074
:100C5800C60DC70DC80DC90DFF3E031D2B2E460836
:100C6800D207470803110318013E03193C2ED30786
:100C7800480803110318013E0319432ED4074908F5
:100C880003110318013E03194A2ED5074C08C60064
:100C98004D08C7004E08C8004F08C9001830031097
:100CA800C90CC80CC70CC60CFF3E031D532E4608C2
:100CB800D207470803110318013E0319642ED3070E
:100CC800480803110318013E03196B2ED40749087D
:100CD80003110318013E0319722ED5070830C60008
:100CE8000310CC0DCD0DCE0DCF0DC60B742E5108B3
:100CF8005007C600C701C70D4608823ED600470800
:100D08000318013EFF3ED700A62E0130C60003108F
:100D1800D20DD30DD40DD50DC60B8B2ECF1F952E0E
:100D2800962E972E52140130C6000310CC0DCD0D0F
:100D3800CE0DCF0DC60B992EFF30D6070318D70A54
:100D4800FF30D707D41FA92EAA2E892ED001CF1F76
:100D5800AE2EAF2ECB2EFF304C05C600FF304D0512
:100D6800C700FF304E05C8007F304F05C90049084D
:100D78004804470446040319C22EC32EC62ED001C8
:100D8800D00ACB2E521CC92ECA2ECB2EC32E5008E9
:100D98000319CF2ED02E012F0130D20700300318AF
:100DA8000130D307003003180130D407003003188E
:100DB8000130D507551CE12EE22E012F5208C6003E
:100DC8005308C7005408C8005508C9000130CA00B4
:100DD800490DC90CC80CC70CC60CCA0BEC2E490827
:100DE800D5004808D4004708D3004608D20001308F
:100DF800D6070318D70A0030D7075708803AFF00EC
:100E080080307F02031D0A2FFF305602031C0D2F6E
:100E18000E2F192F7F3083120313D5008030D40092
:100E28000030D3000030D2004A2F83120313570832
:100E3800803AFF0080307F02031D242F01305602C4
:100E48000318272F282F342F003083120313D500BF
:100E58000030D4000030D3000030D200CB014A2F3C
:100E6800831203135608D100FF30D205FF30D30593
:100E78007F30D4050030D505511C432F442F452F12
:100E8800D4175108C6000310460CD5004B08C600FD
:100E98004608D5045508C1005408C0005308BF00CF
:100EA8005208BE0008000430831603173F020030C2
:100EB80003193E020318612F622FFC2F3E08831688
:100EC8000313BE00831603173F0883160313BF00DE
:100ED800C001C10100300A168A1169260A128A1156
:100EE800831603134108D3004008D2003F08D100FD
:100EF8003E08D0004430CF007F30CE00C030CD0057
:100F08000030CC000A128A15D5230A128A118316DA
:100F180003134F08ED004E08EC004D08EB004C0899
:100F2800EA000A168A1121220A128A11831603136B
:100F38003C08BE003D08BF000030BF1BFF30C000AA
:100F4800C10001300A168A1169260A128A1183160D
:100F580003134108E9004008E8003F08E7003E089D
:100F6800E6000A128A1151200A128A118316031305
:100F7800690883160317B9008316031368088316D4
:100F88000317B80083160313670883160317B700FF
:100F980083160313660883160317B6000A168A1108
:100FA80041230A128A11831603173708BF0036082F
:100FB800BE00831203139D12831603173E18E52FF4
:100FC800E92F831203131D16EC2F831203131D122E
:100FD800831603173F08C1003E08C0000310C10C68
:100FE800C00C0310C10CC00C4008831203139B00F3
:020FF8000800EF
:101006000434003400340034831203139D151D1577
:1010160012158316031387100800831603133C0862
:10102600C0003D08C1003E08C2003F08C3000230B0
:101036000310C00DC10DC20DC30DFF3E031D1B28BD
:101046004308A3004208A2004108A1004008A000EE
:10105600831203136F0883160313A7008312031367
:101066006E0883160313A600831203136D088316F6
:101076000313A500831203136C0883160313A4003D
:101086000A168A118F210A128A158316031323085A
:10109600B0002208AF002108AE002008AD000030E5
:1010A600B4003D30B3000930B2000030B1000A167A
:1010B6008A116C240A128A15831603132D08FF3E23
:1010C60092000800831603175408383EDE005508C0
:1010D6000318013EFF3EDF0058085E02DA00590899
:1010E600031C590A5F02DB0068086A07C600690824
:1010F6000318690A6B07C70066084607C800670831
:101106000318670A4707C90064084807CA00650844
:101116000318650A4907CB0062084A07CC00630832
:101126000318630A4B07CD0060084C07DC00610812
:101136000318610A4D07DD005F08D9005E08D80074
:101146006308E1006208E0006508E3006408E20065
:101156006708E5006608E4006908E7006808E60035
:101166006B08E9006A08E8005F08EB005E08EA0021
:101176005E0883160313BE00831603175F088316E3
:101186000313BF000030BF1BFF30C000C100013099
:101196000A168A1169260A128A158316031341084C
:1011A600ED004008EC003F08EB003E08EA003E3048
:1011B600E9007530E800C230E7008F30E6000A1219
:1011C6008A1151200A128A15831603136908831699
:1011D6000317A90083160313680883160317A800CC
:1011E60083160313670883160317A70083160313D2
:1011F600660883160317A6005A0883160313BE0053
:10120600831603175B0883160313BF000030BF1B4A
:10121600FF30C000C10001300A168A1169260A1281
:101226008A15831603134108ED004008EC003F08B9
:10123600EB003E08EA004030E9009430E800183040
:10124600E7009330E6000A128A1151200A128A1525
:1012560083160313690883160317A5008316031361
:10126600680883160317A4008316031367088316FA
:101276000317A30083160313660883160317A20039
:101286000A128A15A8250A128A1583160317250835
:10129600D1002408D0002308CF002208CE00510830
:1012A600A9005008A8004F08A7004E08A6005C0831
:1012B60083160313BE00831603175D0883160313F4
:1012C600BF000030BF1BFF30C000C10001300A164E
:1012D6008A1169260A128A15831603134108ED003E
:1012E6004008EC003F08EB003E08EA003B30E9000E
:1012F6002330E800D730E7000A30E6000A128A11E8
:1013060051200A128A1583160313690883160317D8
:10131600A50083160313680883160317A400831613
:101326000313670883160317A300831603136608BF
:1013360083160317A2000A128A15A8250A128A150F
:10134600831603172508B9002408B8002308B70038
:101356002208B6000A168A1141230A128A15831634
:1013660003173708D3003608D2005308803AFF0027
:1013760080307F02031DC12965305202031CC42937
:10138600C529CC29643083160317D2000030D30058
:10139600E129831603175308803AFF007F307F0246
:1013A600031DD7299C3052020318DA29DB29E129CB
:1013B6009C3083160317D200FF30D3008316031721
:1013C600D31FE629E729F9296430C2000030C3009B
:1013D6005208643EC40053080318013E003EC5008F
:1013E6000A168A1106210A128A150B2A6430C600CB
:1013F60052084602C20053090318013EC300643076
:10140600C4000030C5000A168A1106210A128A1580
:10141600080083120313080E013983160313BC0058
:10142600BD013C0883120317A800831603133D0869
:1014360083120317A90083120313080C83160313E0
:10144600BC00BC0C3C0C0139BD00BE013D0883123A
:101456000317AA00831603133E0883120317AB0073
:1014660083120313080C83160313BC003C0C0139CA
:10147600BD00BE013D0883120317AC00831603139B
:101486003E0883120317AD0083120313080C0139BB
:1014960083160313BC00BD013C0883120317AE007C
:1014A600831603133D0883120317AF008312031339
:1014B6000808013983160313BC00BD013C088312DA
:1014C6000317B000831603133D0883120317B100F8
:1014D600290883160313A10083120317280883160D
:1014E6000313A0009030A2000130A3000A168A114F
:1014F60001200A128A15831603132008BC0021084E
:10150600BD00831203172B0883160313A100831251
:1015160003172A0883160313A0002C30A2000130FB
:10152600A3000A168A1101200A128A1583160313CC
:1015360020083C07BE0021080318210A3D07BF000A
:10154600831203172F0883160313A10083120317B0
:101556002E0883160313A0002C30A2000130A3002E
:101566000A168A1101200A128A1583160313200807
:101576003E07831203179C008316031321080318E2
:10158600210A3F07831203179D009E019D1B9E03A0
:101596001E089F000630283E840083170008831625
:1015A6000313BC00840A0008BD000310BC0DBD0D6A
:1015B600831203172A08831603133C07BE008312FF
:1015C60003172B0803182B0A831603133D07BF00C6
:1015D600831203173008831603133E07C0008312D5
:1015E600031731080318310A831603133F07C10096
:1015F6008312031728088316031340078312031761
:10160600980029080318290A831603134107831231
:10161600031799009A01991B9A031A089B001B0845
:1016260083160313B000831203171A0883160313D5
:10163600AF0083120317190883160313AE00831233
:101646000317180883160313AD00831203171F0828
:1016560083160313B400831203171E08831603139D
:10166600B300831203171D0883160313B2008312F7
:1016760003171C0883160313B1000A168A116C247B
:101686000A128A1583160313300883160317D70028
:10169600831603132F0883160317D6008316031326
:1016A6002E0883160317D500831603132D088316F9
:1016B6000317D40083120317971B722B1708031DF9
:1016C600712B1608031D712B1508031D712BC930CC
:1016D6001402031D6E2B0318712B722B8C2B831691
:1016E6000317540A031D812B550A031D812B560A25
:1016F600031D812B570A031D812B822B8C2B003057
:1017060083160317D7000030D6000030D50000300E
:10171600D40083120317971BA12B1708031DA22BB6
:101726001608031DA22B01301502031D9E2BF43053
:101736001402031D9E2B031CA12BA22BBC2B83166C
:101746000317540A031DB12B550A031DB12B560A64
:10175600031DB12B570A031DB12BB22BBC2B003036
:1017660083160317D7000030D6000230D500BC30F0
:10177600D40083160317570883120317970083169E
:101786000317560883120317960083160317550886
:101796008312031795008316031754088312031741
:1017A600940008008316031353088039DD0053089C
:1017B600D4005407E400D21FE12BE22BE32B641480
:1017C60064080319E72BE82BF82B640A031DEC2B9E
:1017D600ED2BF52B0030D3000030D2000030D100C5
:1017E6000030D000D217D301002C0030D3000030D7
:1017F600D2000030D1000030D0004F088039D4002C
:101806005408DD064F08D4005407E500CE1F0C2C03
:101816000D2C0E2C651465080319122C132C232C81
:10182600650A031D172C182C202C0030CF00003021
:10183600CE000030CD000030CC00CE17CF012B2CCF
:101846000030CF000030CE000030CD000030CC009C
:101856004F084E044D044C04031D322C332C4C2CE3
:101866000030D3000030D2000030D1000030D0006C
:101876008030D2047F30D3045D08D4005408D304EA
:101886005308CF005208CE005108CD005008CC00B6
:10189600A72D6408031D502C512C5A2C0030CF0064
:1018A6000030CE000030CD000030CC00A72D6408FB
:1018B600D400D5015508D70065085402D600031C8C
:1018C600D70356087F3EDE0057080318013E003E48
:1018D600DF005308DC005208DB005108DA0050082C
:1018E600D9000030D3000030D2000030D1000030E3
:1018F600D0000030E3000030E2000030E1000030AC
:10190600E000E501D02C650803198A2C8B2CAB2C42
:101916000130D4000310D90DDA0DDB0DDC0DD40B2C
:101926008D2C0130D4000310D00DD10DD20DD30D66
:10193600D40B962CE31FA02CA12CA22C5014013002
:10194600D4000310E00DE10DE20DE30DD40BA42C41
:101956004F085C02031DB92C4E085B02031DB92C0F
:101966004D085A02031DB92C4C085902031CBC2C05
:10197600BD2CCC2C63174C08D9024D08031C4D0F07
:10198600DA024E08031C4E0FDB024F08031C4F0FF2
:10199600DC020130D4005408E5071A306502031C46
:1019A600D52CD62C862C5C085B045A0459040319E2
:1019B600DD2CDE2CFD2C6014FD2C0130D400031030
:1019C600D00DD10DD20DD30DD40BE22CE31FEC2C90
:1019D600ED2CEE2C50140130D4000310E00DE10D77
:1019E600E20DE30DD40BF02CFF30DE070318DF0AFF
:1019F600FF30DF07D21F002D012DE02CE501E31F8C
:101A0600052D062D222DFF306005D400FF3061051F
:101A1600D500FF306205D6007F306305D700570832
:101A26005604550454040319192D1A2D1D2DE501CC
:101A3600E50A222D501C202D212D222D1A2D650858
:101A46000319262D272D582D0130D00700300318F5
:101A56000130D107003003180130D20700300318D7
:101A66000130D307531C382D392D582D5008D4007A
:101A76005108D5005208D6005308D7000130D800C7
:101A8600570DD70CD60CD50CD40CD80B432D5708B4
:101A9600D3005608D2005508D1005408D0000130B2
:101AA600DE070318DF0A0030DF075F08803AFF0011
:101AB60080307F02031D612DFF305E02031C642D02
:101AC600652D732DFF3083160313DE000030DF0013
:101AD6000030D3000030D2000030D1000030D000FA
:101AE600831603135F08803AFF0080307F02031DD0
:101AF6007E2D01305E020318812D822D8F2D8316D7
:101B06000313DE01DF010030D3000030D2000030C5
:101B1600D1000030D000DD01831603135E08E40017
:101B2600641C962D972D992DD2179D2D7F30D400AC
:101B36005408D2056408D4000310540CD3005D0881
:101B4600D4005408D304432C080083160317250831
:101B56008039B2002508AA002A07B400A41FB42DB4
:101B6600B52DB62D341434080319BA2DBB2DCB2D43
:101B7600340A031DBF2DC02DC82D0030A50000302E
:101B8600A4000030A3000030A200A417A501D32DA5
:101B96000030A5000030A4000030A3000030A200F1
:101BA60029088039B300330832060319DB2DDC2DF2
:101BB600DD2D32172908AA002A07B300A81FE42D35
:101BC600E52DE62D331433080319EA2DEB2DFB2DF5
:101BD600330A031DEF2DF02DF82D0030A90000303B
:101BE600A8000030A7000030A600A817A901032E00
:101BF6000030A9000030A8000030A7000030A60081
:101C0600340833020318082E092E2F2E321F0C2EED
:101C16000D2E112E8030AA002A08B2063408B5000F
:101C26003308B4003508B3002208B5002608A20020
:101C36003508A6002308B5002708A3003508A70025
:101C46002408B5002808A4003508A8002508B50012
:101C56002908A5003508A900B5013308AA00AB017B
:101C66002B08AD0034082A02AC00031CAD032D0876
:101C7600803AFF0080307F02031D432E1A302C026B
:101C8600031C462E472E7E2E831603172508240492
:101C960023042204031D502E522E0130532E0030F1
:101CA600B5000030A5000030A4000030A3000030CD
:101CB600A2003308B400862E351C622E632E6A2ECF
:101CC6003508AA0003102A0C0138B5006C2E031043
:101CD600B50C221C6F2E702E712EB5170130AA007E
:101CE600250DA50CA40CA30CA20CAA0B732E013077
:101CF600AA002A08B4078316031733083402031C04
:101D0600852E862E5F2E321B892E8A2ED32E3408E0
:101D1600031D8E2E8F2E982E0030A5000030A400B5
:101D26000030A3000030A200FF2F2608A2072708D4
:101D360003110318013E0319A12EA3072808031156
:101D46000318013E0319A82EA40729080311031836
:101D5600013E0319AF2EA507251CB22EB32E872FE1
:101D6600351CB62EB72EBE2E3508AA0003102A0C37
:101D76000138B500C02E0310B50C221CC32EC42E8C
:101D8600C52EB5170130AA00250DA50CA40CA30C71
:101D9600A20CAA0BC72E0130AA002A08B407872F67
:101DA6002508803AFF002908803A7F02031DE52EA8
:101DB60028082402031DE52E27082302031DE52E0D
:101DC600260822020318E82EE92E412FFF30AA002A
:101DD600FF30AB00FF30AC00FF30AD002608AE0090
:101DE6002708AF002808B0002908B1002208AE0273
:101DF6002308031C230F002F012FAF022408031C06
:101E0600240F062F072FB0022508031C250F0C2FC1
:101E16000D2FB1022E08AA072F0803182F0F142F13
:101E2600152FAB0730080318300F1A2F1B2FAC07DE
:101E360031080318310AAD072D08A5002C08A400A7
:101E46002B08A3002A08A2008030AA002A08B2069E
:101E5600B509B50A3508031D312F322F4F2F013032
:101E6600A207003003180130A30700300318013021
:101E7600A407003003180130A5074F2F2608A20239
:101E86002708031C270FA3022808031C280FA402F7
:101E96002908031C290FA50225082404230422046B
:101EA600031D562F572F832F3508031D5B2F5C2FDD
:101EB600832F0030A5000030A4000030A3000030BE
:101EC600A200FF2F0130AA000310A20DA30DA40D3E
:101ED600A50DAA0B672FB51F712F722F732F221412
:101EE600351C762F772F7A2F0314B50D7C2F031010
:101EF600B50D34080319802F812F832F0130B402CA
:101F0600A41F862F872F652FB301B51F8B2F8C2F0C
:101F16009A2F35087F390319912F922F952FB301E8
:101F2600B30A9A2F221C982F992F9A2F922F330893
:101F360003199E2F9F2FD32F0130A20700300318BD
:101F46000130A307003003180130A407003003183E
:101F56000130A507251CB02FB12FD32F2208AA00C8
:101F66002308AB002408AC002508AD000130AE0004
:101F76002D0DAD0CAC0CAB0CAA0CAE0BBB2F2D086B
:101F8600A5002C08A4002B08A3002A08A200340AE6
:101F96000319CE2FCF2FD32F0130AA002A08B4075A
:101FA600340A0319D72FD82FDD2F3408031DDC2F51
:101FB600DD2FEB2F0030A5000030A4000030A30079
:101FC6000030A2003408031DE92FEA2FEB2FB201DF
:101FD600341CEE2FEF2FF12FA417F52F7F30AA0018
:101FE6002A08A4053408AA0003102A0CA500B21F6B
:0A1FF600FD2FFE2FFF2FA517080096
:1020020083160313A401A501201C082809280F2800
:102012002208A4070318A50A2308A5070130031004
:10202200A20DA30DFF3E031D102801300310A10CC9
:10203200A00CFF3E031D172820082104031D22289F
:10204200232805282508A1002408A00008008312DF
:102052000313881B2D282E283928081F31283228DF
:102062003928013083120317A2000030A3005B2835
:10207200881F3C283D284828081B4028412848281A
:10208200023083120317A2000030A3005B28881FCE
:102092004B284C285728081F4F2850285728033010
:1020A20083120317A2000030A3005B2883120317D8
:1020B200A201A30108000A168A1595270A168A1199
:1020C2000A168A11C9200A168A110A168A112820AC
:1020D2000A168A117B280A168A11D7210A168A1132
:1020E2000A128A150C220A168A110A128A1565200A
:1020F2000A168A11831203130518802881286C2876
:10210200003083160317C200C3000030C400C500AC
:102112000A168A1106210A168A1166280A128A11DB
:102122001028831603176F08F3006E08F2006D087B
:10213200F1006C08F000831203136F08F7006E08B9
:10214200F6006D08F5006C08F4000A168A114921A0
:102152000A168A11730883120313A3007208A200DD
:102162007108A1007008A0000030A7003D30A60051
:102172000930A5000030A4000A168A11CF230A16DE
:102182008A11831203132108AF002008AE00080051
:10219200003083160313BF000030BE000F30BD00B5
:1021A200A030BC000A168A1174220A168A11003065
:1021B20083160313BF000030BE000F30BD00A030F5
:1021C200BC000A128A1510200A168A1100308316E2
:1021D2000317BE00BF000A168A1109250A168A11C2
:1021E200003083160317BE00BF000A128A11572758
:1021F2000A168A110A168A1565270A168A110A1200
:102202008A1507200A168A11080083160317C31BB2
:102212000B290C29112983120313061586111C2977
:10222200831203130611861583160317C209C30905
:10223200C20A0319C30A831603174308BF004208E0
:10224200BE000A168A1109250A168A118316031777
:10225200C51B2C292D293229831203130616861237
:102262003D29831203130612861683160317C40927
:10227200C509C40A0319C50A831603174508BF0016
:102282004408BE000A128A1157270A168A1108004A
:102292000030FC000030FB000030FA000030F90092
:1022A200701C542955296C297408F9077508031103
:1022B2000318013E03195E29FA0776080311031871
:1022C200013E03196529FB07770803110318013E34
:1022D20003196C29FC070130F8000310F40DF50D09
:1022E200F60DF70DF80B6E2901300310F30CF20C0A
:1022F200F10CF00CFF3E031D762973087204710481
:102302007004031D8529862951297C08F3007B0866
:10231200F2007A08F1007908F00008000030831614
:102322000313AC000030AB000030AA000030A9005B
:10233200201C9C299D29B4292408A90725080311DA
:102342000318013E0319A629AA0726080311031838
:10235200013E0319AD29AB07270803110318013EFB
:102362000319B429AC070130A8000310A40DA50D70
:10237200A60DA70DA80BB62901300310A30CA20CC1
:10238200A10CA00CFF3E031DBE2923082204210438
:102392002004031DCD29CE2999292C08A3002B083E
:1023A200A2002A08A1002908A0000800831603172A
:1023B200D71BEC295708031DEB295608031DEB29EF
:1023C2005508031DEB2933305402031DE829031875
:1023D200EB29EC29FB29AF3083160317C20000302A
:1023E200C300AB30C400FF30C5000A168A110621B3
:1023F2000A168A1183160317D71B102A5708031DC2
:10240200112A5608031D112A01305502031D0D2AF7
:102412005E305402031D0D2A031C102A112A202AA1
:10242200AB3083160317C200FF30C300AF30C400C5
:102432000030C5000A168A1106210A168A11080000
:10244200831603176F0883160313A300831603175B
:102452006E0883160313A200831603176D088316F2
:102462000313A100831603176C0883160313A0003D
:10247200831203136F0883160313A7008312031337
:102482006E0883160313A600831203136D088316C6
:102492000313A500831203136C0883160313A4000D
:1024A2000A168A118F210A168A118316031323082A
:1024B200B0002208AF002108AE002008AD000030B5
:1024C200B4003D30B3000930B2000030B1000A164A
:1024D2008A116C240A168A11831603132E08BD0072
:1024E2002D08BC000800831603133C08C0003D08F9
:1024F200C1003E08C2003F08C30002300310C00DF5
:10250200C10DC20DC30DFF3E031D7F2A4308A30068
:102512004208A2004108A1004008A0008312031350
:102522006F0883160313A700831203136E08831622
:102532000313A600831203136D0883160313A50069
:10254200831203136C0883160313A4000A168A115C
:102552008F210A168A11831603132308B00022085A
:10256200AF002108AE002008AD000030B4003D30BD
:10257200B3000930B2000030B1000A168A116C248F
:102582000A168A11831603132D08FF3E92000800D3
:102592000310831203135A0D5B0DE1006108031D42
:1025A200D32AD42ADD2A0030DB000030DA000030E2
:1025B200D9000030D800402B5808DC005908DD0053
:1025C2005A08DE005B08DF001F300310DF0CDE0C50
:1025D200DD0CDC0CFF3E031DE62A5C08E000DA1786
:1025E200FF30D805FF30D905FF30DA050030DB05B2
:1025F2009630E102E11FFE2AFF2A192B6108803A78
:10260200973E0318052B062B072BD42A0130031003
:10261200DB0CDA0CD90CD80CFF3E031D082B013061
:10262200DC005C08E107031D172B182B072B302B4E
:1026320020306102031C1E2B1F2B2B2BD42A0130AE
:10264200DC000310D80DD90DDA0DDB0DDC0B222BCB
:102652000130E1026108031D2F2B302B202B600873
:102662000319342B352B402BD809D909DA09DB0998
:10267200D80A0319D90A0319DA0A0319DB0A08006E
:10268200031083160317380D390D83160313EF0059
:102692006F08031D4D2B4E2B592B00308316031749
:1026A200B9000030B8000030B7000030B600CE2BC1
:1026B200831603173608BA003708BB003808BC0077
:1026C2003908BD001F300310BD0CBC0CBB0CBA0C8A
:1026D200FF3E031D642B3A0883160313EE00831694
:1026E2000317B817FF30B605FF30B705FF30B8053E
:1026F2000030B905963083160313EF02EF1F822BC9
:10270200832BA12B6F08803A973E0318892B8A2BC3
:102712008B2B4E2B0130031083160317B90CB80C08
:10272200B70CB60CFF3E031D8C2B0130BA003A08E1
:1027320083160313EF07031D9F2BA02B8B2BBC2BA0
:1027420020306F02031CA62BA72BB72B4E2B013078
:1027520083160317BA000310B60DB70DB80DB90DE5
:10276200BA0BAC2B013083160313EF026F08031D63
:10277200BB2BBC2BA82B6E080319C02BC12BCE2B55
:1027820083160317B609B709B809B909B60A0319B6
:10279200B70A0319B80A0319B90A08008312031306
:1027A200A901A31FD52BD62BE32BA009A109A209AE
:1027B200A309A00A0319A10A0319A20A0319A30A69
:1027C200A901A90AA71FE62BE72BF62BA409A50945
:1027D200A609A709A40A0319A50A0319A60A031937
:1027E200A70A0130FD007D08A9060030AD000030C7
:1027F200AC000030AB000030AA0023082204210400
:1028020020040319052C062C532CA801A80A162C07
:102812000130FD000310A00DA10DA20DA30DFD0BB3
:102822000B2C0130FD007D08A807A31F192C1A2CC0
:10283200092C0130FD000310AA0DAB0DAC0DAD0D3E
:10284200FD0B1C2C23082702031D312C2208260213
:10285200031D312C21082502031D312C20082402DE
:10286200031C342C352C442C2008A4022108031C00
:10287200210FA5022208031C220FA6022308031C13
:10288200230FA7022A1401300310A30CA20CA10CDF
:10289200A00CFF3E031D452C0130A802031D522C43
:1028A200532C1A2C29080319572C582C632CAA09CB
:1028B200AB09AC09AD09AA0A0319AB0A0319AC0AA0
:1028C2000319AD0A2D08A3002C08A2002B08A100B1
:1028D2002A08A000080083160313B701B01F722C48
:1028E200732C802CAD09AE09AF09B009AD0A0319EA
:1028F200AE0A0319AF0A0319B00AB701B70AB41F27
:10290200832C842C932CB109B209B309B409B10AFE
:102912000319B20A0319B30A0319B40A0130B50044
:102922003508B7060030BB000030BA000030B900ED
:102932000030B80030082F042E042D040319A22CF5
:10294200A32CF02CB601B60AB32C0130B50003104B
:10295200AD0DAE0DAF0DB00DB50BA82C0130B5000D
:102962003508B607B01FB62CB72CA62C0130B5001F
:102972000310B80DB90DBA0DBB0DB50BB92C30084B
:102982003402031DCE2C2F083302031DCE2C2E0839
:102992003202031DCE2C2D083102031CD12CD22C65
:1029A200E12C2D08B1022E08031C2E0FB2022F08B3
:1029B200031C2F0FB3023008031C300FB40238146B
:1029C20001300310B00CAF0CAE0CAD0CFF3E031D7A
:1029D200E22C0130B602031DEF2CF02CB72C370885
:1029E2000319F42CF52C002DB809B909BA09BB0951
:1029F200B80A0319B90A0319BA0A0319BB0A3B0830
:102A0200B0003A08AF003908AE003808AD0008003F
:102A12000430831603173F02003003193E020318E5
:102A2200132D142DAE2D3E0883160313BE008316FC
:102A320003173F0883160313BF00C001C101003012
:102A42000A168A1169260A168A1183160313410887
:102A5200D3004008D2003F08D1003E08D0004430E5
:102A6200CF007F30CE00C030CD000030CC000A1243
:102A72008A15D5230A168A11831603134F08ED000F
:102A82004E08EC004D08EB004C08EA000A168A11C9
:102A920021220A168A11831603133C08BE003D0840
:102AA200BF000030BF1BFF30C000C10001300A165A
:102AB2008A1169260A168A11831603134108E9004E
:102AC2004008E8003F08E7003E08E6000A128A11C3
:102AD20051200A168A1183160313690883160317F5
:102AE200B90083160313680883160317B800831608
:102AF2000313670883160317B700831603136608C8
:102B020083160317B6000A168A1141230A168A1180
:102B1200831603173708BF003608BE00831203135B
:102B22009712831603173E18972D9B2D83120313BA
:102B320017169E2D831203131712831603173F08CD
:102B4200C1003E08C0000310C10CC00C0310C10C30
:102B5200C00C40088312031395000800831203136C
:102B6200B80038080319B62DB72DCB2DB31FBA2DD7
:102B7200BB2DCB2D3009BA003109BB003209BC0094
:102B82003309BD00BA0A0319BB0A0319BC0A0319A7
:102B9200BD0AD32D3308BD003208BC003108BB008A
:102BA2003008BA003308320431043004031DDA2D30
:102BB200DB2DE42D0030B3000030B2000030B10054
:102BC2000030B000682E9630B900F42D0130B40008
:102BD2003408B90701300310BD0CBC0CBB0CBA0C95
:102BE200FF3E031DEC2DFE303D05031DF92DFA2D90
:102BF200E72D162E0130B4003408B9070130BA07A8
:102C0200003003180130BB07003003180130BC0745
:102C1200003003180130BD0701300310BD0CBC0C9D
:102C2200BB0CBA0CFF3E031D0E2EFF303D05031DEB
:102C32001B2E1C2EFB2D282E0130B9020130B400B0
:102C42000310BA0DBB0DBC0DBD0DB40B212EBC1B68
:102C52002B2E2C2E322E023039020318312E322E18
:102C62001D2E3918352E362E3E2EFF30BA05FF3076
:102C7200BB057F30BC05FF30BD050310B90C390818
:102C8200B400B501B601B70118300310B40DB50D8B
:102C9200B60DB70DFF3E031D462E3408BA043508A3
:102CA200BB043608BC043708BD04380803195A2E81
:102CB2005B2E602EB31F5E2E5F2E602EBD173D0869
:102CC200B3003C08B2003B08B1003A08B00008006B
:102CD20083160313C60046080319702E712E852E23
:102CE200C11F742E752E852E3E09C8003F09C900EA
:102CF2004009CA004109CB00C80A0319C90A0319CD
:102D0200CA0A0319CB0A8D2E4108CB004008CA001B
:102D12003F08C9003E08C800410840043F043E0481
:102D2200031D942E952E9E2E0030C1000030C0004F
:102D32000030BF000030BE00222F9630C700AE2EFA
:102D42000130C2004208C70701300310CB0CCA0C85
:102D5200C90CC80CFF3E031DA62EFE304B05031DF9
:102D6200B32EB42EA12ED02E0130C2004208C707C6
:102D72000130C807003003180130C90700300318BA
:102D82000130CA07003003180130CB0701300310AD
:102D9200CB0CCA0CC90CC80CFF3E031DC82EFF3059
:102DA2004B05031DD52ED62EB52EE22E0130C702BD
:102DB2000130C2000310C80DC90DCA0DCB0DC20BE4
:102DC200DB2ECA1BE52EE62EEC2E0230470203183C
:102DD200EB2EEC2ED72E4718EF2EF02EF82EFF30CA
:102DE200C805FF30C9057F30CA05FF30CB05031087
:102DF200C70C4708C200C301C401C5011830031043
:102E0200C20DC30DC40DC50DFF3E031D002F4208A8
:102E1200C8044308C9044408CA044508CB04460848
:102E22000319142F152F1A2FC11F182F192F1A2FFC
:102E3200CB174B08C1004A08C0004908BF00480828
:102E4200BE0008008B1C262F272FF52F0310091D0B
:102E5200031403182D2F312F831203130915342F56
:102E62008312031309110A168A1192200A168A1173
:102E7200831203132E08B0002F08B1000030B11BDB
:102E8200FF30B200B30001300A168A11AF250A16CC
:102E92008A11831203133308C5003208C4003108B3
:102EA200C3003008C2000030C1000030C000003052
:102EB200BF000030BE000A128A1112240A168A11BB
:102EC200831203134108DB004008DA003F08D900EF
:102ED2003E08D8000A168A11C9220A168A118312DC
:102EE20003135908E9005808E800971268187A2F66
:102EF2007E2F831203131716812F831203131712C7
:102F02006908E3006808E200630DE30CE20C630D5C
:102F1200E30CE20C620895000A168A1192200A1646
:102F22008A11831203132E08B0002F08B10000305B
:102F3200B11BFF30B200B30001300A168A11AF256F
:102F42000A168A11831203133308C5003208C4001B
:102F52003108C3003008C2000030C1000030C00098
:102F62000030BF000030BE000A128A1112240A1675
:102F72008A11831203134108DB004008DA003F087C
:102F8200D9003E08D8000A168A11C9220A168A11E7
:102F9200831203135908EB005808EA009D126A18BD
:102FA200D32FD72F831203131D16DA2F8312031385
:102FB2001D126B08E3006A08E200630DE30CE20CE9
:102FC200630DE30CE20C62089B00063083120313CC
:102FD200E4001330E300AD30E200E20BEE2FE30B2E
:102FE200EE2FE40BEE2F8B10831203136708FF0002
:0E2FF20066088A00650E8300FE0E7E0E090042
:103EB200E83403340034003464008001840A0406C8
:103EC2000319003404065E2F831203139715171586
:103ED200121583160313071108007E088A007F0853
:103EE20082000A168A156E270A168A158000840A2D
:103EF20004087D0603190034FF0A0319FE0A722F13
:103F02000A34D73423343B34933418349434403451
:103F12008F34C23475343E34C834003455340034DE
:103F2200AF340034643400348B170B170B168B102C
:103F32008316031301170F3085000330860090307B
:103F42008700FF308800890106309F008312031327
:103F52008501860187018801890107140800F8009C
:103F6200F401F5017008F200F3017208F60073081B
:103F7200F700781CBD2FBE2FC42F7608F407031854
:103F8200F50A7708F50701300310F60DF70DFF3E2D
:103F9200031DC52F0310F80C7808031DD12FD22F53
:103FA200BA2F7508F1007408F00008008316031395
:103FB200A800A401A5012008A200A3012208A600CE
:103FC2002308A700281CE62FE72FED2F2608A407B9
:103FD2000318A50A2708A50701300310A60DA70D8F
:103FE200FF3E031DEE2F0310A80C2808031DFA2F15
:103FF200FB2FE32F2508A1002408A0000800FF3FA3
:06400200FF3FFF3FFF3FFE
:02400E00393F38
:00000001FF
