:060000000A128A110C280F
:10000800FE00030EF0000A08F1000A128A15582DA6
:100018000A128A110F288317A030FD000D30FE0048
:100028007030FF00903084000A128A1584250A1265
:100038008A118313EE30FD000D30FE006430FF009E
:10004800E23084000A128A1584250A128A1183175D
:10005800A0308400A8300A128A153E250A128A1197
:100068008313A0308400D0300A128A153E250A1264
:100078008A11FA01FB0183010A128A15792F83126A
:10008800031358088039E2005808DD005D07E800CE
:10009800D71F4F2850285128681468080319552875
:1000A80056286528680A031D5A285B2863280030EB
:1000B800D8000030D7000030D6000030D500D71760
:1000C8006D280030D8000030D7000030D60000304E
:1000D800D5005C088039DD005D08E2065C08DD00BB
:1000E8005D07E300DB1F79287A287B2863146308FF
:1000F80003197F2880288F28630A031D84288528F0
:100108008D280030DC000030DB000030DA000030E1
:10011800D900DB1797280030DC000030DB00003006
:10012800DA000030D900630803199B289C28A1280D
:100138006808031DA028A128AA280030D80000308C
:10014800D7000030D6000030D500872B5508F200C4
:100158005B080A128A15AD250A128A1173088312E0
:100168000313EE007208ED006D08DD00DE01DF010B
:10017800E0016008E7005F08E6005E08E5005D084A
:10018800E4006E08DD00DE01DF01E0016008EC003C
:100198005F08EB005E08EA005D08E9005608F20017
:1001A8005A080A128A15AD250A128A117308831291
:1001B8000313EE007208ED006D08DD00DE01DF01BB
:1001C800E0015D08E4075E0803110318013E031906
:1001D800EE28E5075F0803110318013E0319F52807
:1001E800E607600803110318013E0319FC28E70716
:1001F8006E08DD00DE01DF01E0015D08E9075E0849
:1002080003110318013E03190A29EA075F080311BD
:100218000318013E03191129EB076008031103189D
:10022800013E03191829EC075708F20059080A1269
:100238008A15AD250A128A11730883120313EE007A
:100248007208ED006D08DD00DE01DF01E0015D08E8
:10025800E4075E0803110318013E03193429E50772
:100268005F0803110318013E03193B29E6076008DC
:1002780003110318013E03194229E7076E08DD0040
:10028800DE01DF01E0015D08E9075E0803110318DC
:10029800013E03195029EA075F0803110318013EBC
:1002A80003195729EB07600803110318013E0319C6
:1002B8005E29EC070830DD000310E40DE50DE60DBE
:1002C800E70DDD0B60295608F20059080A128A1555
:1002D800AD250A128A11730883120313EE007208FF
:1002E800ED006D08DD006E08DE00DF01E0015D084D
:1002F800E4075E0803110318013E03198429E50782
:100308005F0803110318013E03198B29E6076008EB
:1003180003110318013E03199229E7075508F20053
:100328005A080A128A15AD250A128A11730883120F
:100338000313EE007208ED006D08DD006E08DE00A4
:10034800DF01E0015D08E4075E0803110318013EC0
:100358000319AF29E5075F0803110318013E0319C4
:10036800B629E607600803110318013E0319BD29E1
:10037800E7070830DD000310E40DE50DE60DE70D95
:10038800DD0BBF295508F20059080A128A15AD2558
:100398000A128A11730883120313EE007208ED0023
:1003A8006D08DD006E08DE00DF01E0015D08E4078E
:1003B8005E0803110318013E0319E329E5075F08E6
:1003C80003110318013E0319EA29E607600803111F
:1003D8000318013E0319F129E7075608F2005B08E4
:1003E8000A128A15AD250A128A117308831203139B
:1003F800EE007208ED006D08DD006E08DE00DF011A
:10040800E0015D08E9075E0803110318013E0319BE
:100418000E2AEA075F0803110318013E0319152A7B
:10042800EB07600803110318013E03191C2AEC07A7
:100438005708F2005A080A128A15AD250A128A11BD
:10044800730883120313EE007208ED006D08DD00D7
:100458006E08DE00DF01E0015D08E9075E080311B0
:100468000318013E0319392AEA075F080311031824
:10047800013E0319402AEB07600803110318013EE7
:100488000319472AEC075708F2005B080A128A1575
:10049800AD250A128A11730883120313EE0072083D
:1004A800ED006D08DD006E08DE00DF01E0010830B8
:1004B8000310DD0DDE0DDF0DE00DFF3E031D5C2A90
:1004C8005D08E9075E0803110318013E03196D2A48
:1004D800EA075F0803110318013E0319742AEB07A2
:1004E800600803110318013E03197B2AEC0764080E
:1004F800DD006508DE006608DF006708E0001830E8
:100508000310E00CDF0CDE0CDD0CFF3E031D842A1B
:100518005D08E9075E0803110318013E0319952ACF
:10052800EA075F0803110318013E03199C2AEB0729
:10053800600803110318013E0319A32AEC070830C9
:10054800DD000310E40DE50DE60DE70DDD0BA52A32
:1005580068086307DD00DE01DE0D5D08823EED0000
:100568005E080318013EFF3EEE00D72A0130DD0089
:100578000310E90DEA0DEB0DEC0DDD0BBC2AE71FAE
:10058800C62AC72AC82A69140130DD000310E40D01
:10059800E50DE60DE70DDD0BCA2AFF30ED07031860
:1005A800EE0AFF30EE07EB1FDA2ADB2ABA2AE3014C
:1005B800E71FDF2AE02AFC2AFF306405DD00FF3050
:1005C8006505DE00FF306605DF007F306705E00067
:1005D80060085F045E045D040319F32AF42AF72A0D
:1005E800E301E30AFC2A691CFA2AFB2AFC2AF42AFA
:1005F80063080319002B012B322B0130E907003067
:1006080003180130EA07003003180130EB07003007
:1006180003180130EC076C1C122B132B322B6908C2
:10062800DD006A08DE006B08DF006C08E0000130BE
:10063800E100600DE00CDF0CDE0CDD0CE10B1D2B86
:100648006008EC005F08EB005E08EA005D08E9005E
:100658000130ED070318EE0A0030EE076E08803A05
:10066800FF0080307F02031D3B2BFF306D02031C0F
:100678003E2B3F2B4A2B7F3083120313EC00803034
:10068800EB000030EA000030E9007B2B83120313F3
:100698006E08803AFF0080307F02031D552B013021
:1006A8006D020318582B592B652B00308312031346
:1006B800EC000030EB000030EA000030E900E20115
:1006C8007B2B831203136D08E800FF30E905FF3028
:1006D800EA057F30EB050030EC05681C742B752BA0
:1006E800762BEB176808DD0003105D0CEC00620840
:1006F800DD005D08EC046C08D8006B08D7006A08B8
:10070800D6006908D500080083120313420880390F
:10071800CC004208C3004307D300C11F942B952B7C
:10072800962B5314530803199A2B9B2BAB2B530A64
:10073800031D9F2BA02BA82B0030C2000030C10046
:100748000030C0000030BF00C117C201B32B003019
:10075800C2000030C1000030C0000030BF003E08B9
:100768008039C3004308CC063E08C3004307D400C1
:10077800BD1FBF2BC02BC12B541454080319C52B04
:10078800C62BD62B540A031DCA2BCB2BD32B0030D8
:10079800BE000030BD000030BC000030BB00BD17FB
:1007A800BE01DE2B0030BE000030BD000030BC00B2
:1007B8000030BB003E083D043C043B04031DE52B10
:1007C800E62BFF2B0030C2000030C1000030C00013
:1007D8000030BF008030C1047F30C2044C08C30021
:1007E8004308C2044208BE004108BD004008BC00DE
:1007F8003F08BB005A2D5308031D032C042C0D2C55
:100808000030BE000030BD000030BC000030BB002E
:100818005A2D5308C300C4014408C60054084302B3
:10082800C500031CC60345087F3ECD0046080318D3
:10083800013E003ECE004208CB004108CA004008F5
:10084800C9003F08C8000030C2000030C1000030B5
:10085800C0000030BF000030D2000030D1000030AE
:10086800D0000030CF00D401832C540803193D2C4C
:100878003E2C5E2C0130C3000310C80DC90DCA0DF3
:10088800CB0DC30B402C0130C3000310BF0DC00DAE
:10089800C10DC20DC30B492CD21F532C542C552CFF
:1008A8003F140130C3000310CF0DD00DD10DD20D70
:1008B800C30B572C3E084B02031D6C2C3D084A0203
:1008C800031D6C2C3C084902031D6C2C3B08480294
:1008D800031C6F2C702C7F2C52173B08C8023C0855
:1008E800031C3C0FC9023D08031C3D0FCA023E0809
:1008F800031C3E0FCB020130C3004308D4071A3053
:100908005402031C882C892C392C4B084A044904AE
:1009180048040319902C912CB02C4F14B02C0130A2
:10092800C3000310BF0DC00DC10DC20DC30B952C24
:10093800D21F9F2CA02CA12C3F140130C300031000
:10094800CF0DD00DD10DD20DC30BA32CFF30CD0789
:100958000318CE0AFF30CE07C11FB32CB42C932C3A
:10096800D401D21FB82CB92CD52CFF304F05C300A9
:10097800FF305005C400FF305105C5007F305205D7
:10098800C60046084504440443040319CC2CCD2C66
:10099800D02CD401D40AD52C3F1CD32CD42CD52C44
:1009A800CD2C54080319D92CDA2C0B2D0130BF0794
:1009B800003003180130C007003003180130C107A8
:1009C800003003180130C207421CEB2CEC2C0B2D15
:1009D8003F08C3004008C4004108C5004208C600DB
:1009E8000130C700460DC60CC50CC40CC30CC70BA0
:1009F800F62C4608C2004508C1004408C000430858
:100A0800BF000130CD070318CE0A0030CE074E08CC
:100A1800803AFF0080307F02031D142DFF304D0205
:100A2800031C172D182D262DFF3083120313CD001C
:100A38000030CE000030C2000030C1000030C000DD
:100A48000030BF00831203134E08803AFF00803045
:100A58007F02031D312D01304D020318342D352D31
:100A6800422D83120313CD01CE010030C2000030A5
:100A7800C1000030C0000030BF00CC018312031356
:100A88004D08D300531C492D4A2D4C2DC117502D0C
:100A98007F30C3004308C1055308C3000310430C4B
:100AA800C2004C08C3004308C204F62B0800831296
:100AB8000313B50035080319622D632D772DB01F78
:100AC800662D672D772D2D09B7002E09B8002F093F
:100AD800B9003009BA00B70A0319B80A0319B90AE4
:100AE8000319BA0A7F2D3008BA002F08B9002E085A
:100AF800B8002D08B70030082F042E042D04031D5C
:100B0800862D872D902D0030B0000030AF000030CA
:100B1800AE000030AD00142E9630B600A02D013086
:100B2800B1003108B60701300310BA0CB90CB80C83
:100B3800B70CFF3E031D982DFE303A05031DA52D69
:100B4800A62D932DC22D0130B1003108B607013012
:100B5800B707003003180130B80700300318013018
:100B6800B907003003180130BA0701300310BA0C76
:100B7800B90CB80CB70CFF3E031DBA2DFF303A056F
:100B8800031DC72DC82DA72DD42D0130B602013065
:100B9800B1000310B70DB80DB90DBA0DB10BCD2DBD
:100BA800B91BD72DD82DDE2D023036020318DD2DC6
:100BB800DE2DC92D3618E12DE22DEA2DFF30B705BF
:100BC800FF30B8057F30B905FF30BA050310B60C01
:100BD8003608B100B201B301B40118300310B10DE9
:100BE800B20DB30DB40DFF3E031DF22D3108B7044D
:100BF8003208B8043308B9043408BA0435080319AC
:100C0800062E072E0C2EB01F0A2E0B2E0C2EBA17EE
:100C18003A08B0003908AF003808AE003708AD0010
:100C280008000430831603135B02003003195A02CC
:100C380003181F2E202EBA2E5A0883120313AD0054
:100C4800831603135B0883120313AE00AF01B001D0
:100C580000300A128A115B250A128A1183120313C3
:100C68003008C2002F08C1002E08C0002D08BF00A0
:100C78004430BE007F30BD00C030BC000030BB0037
:100C88000A128A1188230A128A11831203133E0852
:100C9800DC003D08DB003C08DA003B08D9000A12FA
:100CA8008A1544260A128A11831203132708AD00F5
:100CB8002808AE000030AE1BFF30AF00B000013096
:100CC8000A128A115B250A128A118312031330084B
:100CD800D8002F08D7002E08D6002D08D5000A12F4
:100CE8008A1143200A128A118312031358088316A3
:100CF8000313D30083120313570883160313D20078
:100D080083120313560883160313D10083120313A7
:100D1800550883160313D0000A128A1501270A12F0
:100D28008A11831603135108DB005008DA00831276
:100D380003139D12831603135A18A32EA72E83128A
:100D480003131D16AA2E831203131D1283160313F1
:100D58005B08DD005A08DC000310DD0CDC0C031016
:100D6800DD0CDC0C5C08831203139B0008000430C4
:100D7800831603135B02003003195A020318C52EA9
:100D8800C62E602F5A0883120313AD00831603136F
:100D98005B0883120313AE00AF01B00100300A12E2
:100DA8008A115B250A128A11831203133008C200C4
:100DB8002F08C1002E08C0002D08BF004430BE0017
:100DC8007F30BD00C030BC000030BB000A128A1161
:100DD80088230A128A11831203133E08DC003D0897
:100DE800DB003C08DA003B08D9000A128A154426C1
:100DF8000A128A11831203132708AD002808AE00CF
:100E08000030AE1BFF30AF00B00001300A128A116B
:100E18005B250A128A11831203133008D8002F08A1
:100E2800D7002E08D6002D08D5000A128A114320B3
:100E38000A128A1183120313580883160313D30066
:100E480083120313570883160313D2008312031364
:100E5800560883160313D10083120313550883160B
:100E68000313D0000A128A1501270A128A11831661
:100E780003135108DB005008DA008312031397129A
:100E8800831603135A18492F4D2F8312031317166D
:100E9800502F831203131712831603135B08DD0008
:100EA8005A08DC000310DD0CDC0C0310DD0CDC0C34
:100EB8005C08831203139500080083120313A20130
:100EC800F51F672F682F752FF209F309F409F50943
:100ED800F20A0319F30A0319F40A0319F50AA2011D
:100EE800A20AF91F782F792F882FF609F709F80930
:100EF800F909F60A0319F70A0319F80A0319F90A8E
:100F08000130A0002008A2060030A6000030A5008D
:100F18000030A4000030A300750874047304720440
:100F28000319972F982FE52FA101A10AA82F0130A7
:100F3800A0000310F20DF30DF40DF50DA00B9D2F7D
:100F48000130A0002008A107F51FAB2FAC2F9B2F65
:100F58000130A0000310A30DA40DA50DA60DA00B34
:100F6800AE2F75087902031DC32F74087802031D7C
:100F7800C32F73087702031DC32F72087602031C60
:100F8800C62FC72FD62F7208F6027308031C730FDB
:100F9800F7027408031C740FF8027508031C750F18
:100FA800F902231401300310F50CF40CF30CF20CC5
:100FB800FF3E031DD72F0130A102031DE42FE52FAB
:100FC800AC2F22080319E92FEA2FF52FA309A4094A
:100FD800A509A609A30A0319A40A0319A50A03194E
:100FE800A60A2608F5002508F4002408F3002308BB
:040FF800F2000800FB
:101A6E0083120313051C3C2D3D2D372D08006400F9
:101A7E008001840A04060319003404063F2D8312E4
:101A8E000313971517151215831603130711080064
:101A9E00831203139D151D1512158316031387103C
:101AAE0008008B1C5B2D5C2D5D2D8B1071088A0040
:101ABE00700E8300FE0E7E0E0900FA34003455348B
:101ACE000034AF34003464340034E834033400346A
:101ADE0000340A34D73423343B34933418349434DA
:101AEE0040348F34C23475343E3404340034003400
:101AFE0000347E088A007F0882000A128A1580252B
:101B0E000A128A158000840A04087D06031900341F
:101B1E00FF0A0319FE0A842D8B170B170B1683165B
:101B2E00031301170F3085000330860090308700B5
:101B3E00FF308800890106309F0083120313850150
:101B4E008601870188018901071408008312031397
:101B5E00A400A001A1017208F400F5017408A2000E
:101B6E007508A300241CBC2DBD2DC32D2208A00773
:101B7E000318A10A2308A10701300310A20DA30D1B
:101B8E00FF3E031DC42D0310A40C2408031DD02DED
:101B9E00D12DB92D2108F3002008F2000800831280
:101BAE0003132708AB002808AC002908AD002A084B
:101BBE00AE0002300310AB0DAC0DAD0DAE0DFF3E01
:101BCE00031DE12D02300310AB0DAC0DAD0DAE0DAE
:101BDE00FF3E031DEA2D2E08F5002D08F4002C08FB
:101BEE00F3002B08F2000030F9003D30F800093008
:101BFE00F7000030F6000A128A1161270A128A15C0
:101C0E007208FF3E8316031392000800831203131B
:101C1E002708AB002808AC002908AD002A08AE0042
:101C2E0002300310AB0DAC0DAD0DAE0DFF3E031D1E
:101C3E00182E02300310AB0DAC0DAD0DAE0DFF3EE8
:101C4E00031D212E2E08F5002D08F4002C08F3009C
:101C5E002B08F2000030F9003D30F8000930F70093
:101C6E000030F6000A128A1161270A128A157208CC
:101C7E00FF3E8316031392000800831603136A08AF
:101C8E0083120313A900831603136B088312031325
:101C9E00AA00831603136C0883120313AB0083167A
:101CAE0003136D0883120313AC0002300310A90D49
:101CBE00AA0DAB0DAC0DFF3E031D5D2E2C08F500DD
:101CCE002B08F4002A08F3002908F2000030F9006E
:101CDE003D30F8000930F7000030F6000A128A1184
:101CEE0061270A128A15730883120313A80072085B
:101CFE00A7000800003083120313AA000030A900C9
:101D0E000F30A800A030A7000A128A15D6250A1295
:101D1E008A15003083120313AA000030A9000F3079
:101D2E00A800A030A7000A128A150D260A128A15DD
:101D3E00003083160313DA00DB000A128A11BB2669
:101D4E000A128A15003083160313DA00DB000A121A
:101D5E008A1115260A128A150A128A1546250A12A2
:101D6E008A150A128A154F250A128A15080083163B
:101D7E000313DF1BC32EC42EC92E831203130615A5
:101D8E008611D42E831203130611861583160313A0
:101D9E00DE09DF09DE0A0319DF0A831603135F0863
:101DAE00DB005E08DA000A128A11BB260A128A15B7
:101DBE0083160313E11BE42EE52EEA2E8312031382
:101DCE0006168612F52E8312031306128616831636
:101DDE000313E009E109E00A0319E10A831603136C
:101DEE006108DB006008DA000A128A1115260A1251
:101DFE008A150800031083160313520D530DD900D4
:101E0E005908031D0B2F0C2F152F0030D300003057
:101E1E00D2000030D1000030D000782F5008D4000E
:101E2E005108D5005208D6005308D7001F300310B2
:101E3E00D70CD60CD50CD40CFF3E031D1E2F540808
:101E4E00D800D217FF30D005FF30D105FF30D205B4
:101E5E000030D3059630D902D91F362F372F512F88
:101E6E005908803A973E03183D2F3E2F3F2F0C2FD7
:101E7E0001300310D30CD20CD10CD00CFF3E031D3D
:101E8E00402F0130D4005408D907031D4F2F502F77
:101E9E003F2F682F20305902031C562F572F632FC8
:101EAE000C2F0130D4000310D00DD10DD20DD30D57
:101EBE00D40B5A2F0130D9025908031D672F682FF2
:101ECE00582F580803196C2F6D2F782FD009D10970
:101EDE00D209D309D00A0319D10A0319D20A031958
:101EEE00D30A08000A128A1593250A128A150A12B5
:101EFE008A1581260A128A150A128A1537250A12A0
:101F0E008A152C3083160313DE000130DF0090306B
:101F1E00E0000130E1000A128A15BE260A128A1567
:101F2E00103083160317AA003930A9000D30A8000F
:101F3E00A80B9F2FA90B9F2FAA0B9F2F0C30831638
:101F4E000313DE00FE30DF005830E0000230E10007
:101F5E000A128A15BE260A128A1510308316031726
:101F6E00AA003930A9000D30A800A80BBC2FA90B70
:101F7E00BC2FAA0BBC2FE83083160313DE000330F0
:101F8E00DF001830E000FC30E1000A128A15BE2690
:101F9E000A128A15103083160317AA003930A900C9
:101FAE000D30A800A80BD92FA90BD92FAA0BD92F0A
:101FBE00323083160313DE000030DF003230E000D3
:101FCE000030E1000A128A15BE260A128A15103058
:101FDE0083160317AA003930A9000D30A800A80BEC
:101FEE00F62FA90BF62FAA0BF62F882F0A128A119D
:021FFE000C28AD
:08400000FF3FFF3FFF3FFF3FC0
:02400E00393F38
:00000001FF
