:060000000A128A110C280F
:10000800FE00030EFC000A08FD000A128A115D2892
:100018000A128A110F2883136C30FD000030FE008D
:100028007B30FF00503084000A128A11CC200A125B
:100038008A112030840050300A128A11DB200A12FB
:100048008A11703084007A300A128A11DB200A1271
:100058008A1183010A128A11B22883120313881B9A
:10006800362837284028081F3A283B2840280130DE
:10007800B8000030B9005C28881F432844284D2860
:10008800081B472848284D280230B8000030B9001E
:100098005C28881F502851285A28081F542855289A
:1000A8005A280330B8000030B9005C28B801B901FB
:1000B80008008B1C6028612874288230FB00DD3022
:1000C800FA00FA0B6528FB0B65286A2883120313CC
:1000D80009196F28702872280915732809118B10BF
:1000E8007D088A007C0E8300FE0E7E0E09000A340D
:1000F800D73423343B3493341834943440348F3415
:10010800C23475343E340434003400340034FA34D4
:10011800003455340034AF34003464340034E834E7
:100128000334003400348B170B170B168B1083160F
:10013800031301170F3085000330860090308700C5
:10014800FF308800890106309F0083120313850160
:100158008601870188018901071408000A128A119B
:1001680097200A128A110A128A11E3200A128A11A8
:100178000A128A1131200A128A11831203130915EF
:10018800C4280A128A110C287E088A007F08820077
:100198000A128A11C8200A128A118000840A0408E7
:1001A8007D0603190034FF0A0319FE0ACC286400EF
:1001B8008001840A0406031900340406DC2883122B
:0C01C8000313051CE828E928E3280800C0
:08400000FF3FFF3FFF3FFF3FC0
:02400E00393F38
:00000001FF
