:060000000A128A1110280B
:10000800FE00030E83120313E5000A08E6007F08CA
:10001800E7000A128A15502D0A128A11132883172D
:10002800EF30FD001530FE004C30FF00E330840057
:100038000A168A1168250A128A112830FD0015301F
:10004800FE005830FF001C3084000A168A1168250B
:100058000A128A1183137030FD001530FE002E300D
:10006800FF006C3084000A168A1168250A128A116A
:10007800831790308400BE300A168A1132250A127E
:100088008A11103084001C300A168A1132250A128F
:100098008A1183010A168A11772D831603136908BA
:1000A800803983160317C300831603136908831660
:1000B8000317BE003E07C90083160313E81F65280F
:1000C80066286928831603174914831603174908F5
:1000D80003196F2870288228490A031D7428752877
:1000E8007F28003083160313E9000030E800003051
:1000F800E7000030E6000313E8178C280030831669
:100108000313E9000030E8000030E7000030E600A3
:100118006D08803983160317BE003E08C306831690
:1001280003136D0883160317BE003E07C800831625
:100138000313EC1FA028A128A4288316031748142A
:100148008316031748080319AA28AB28BD28480AAC
:10015800031DAF28B028BA28003083160313ED001A
:100168000030EC000030EB000030EA000313EC171D
:10017800C728003083160313ED000030EC00003070
:10018800EB000030EA008316031748080319CD284E
:10019800CE28D3284908031DD228D328DE280030CA
:1001A80083160313E9000030E8000030E700003050
:1001B800E600112C831603136608A0006C080A16C3
:1001C8008A11D2250A128A1183160313210883166D
:1001D8000317CF0083160313200883160317CE00D6
:1001E8004E08BE00BF01C001C1014108C700400858
:1001F800C6003F08C5003E08C4004F08BE00BF0146
:10020800C001C1014108CD004008CC003F08CB0027
:100218003E08CA00831603136708A0006B080A1675
:100228008A11D2250A128A1183160313210883160C
:100238000317CF0083160313200883160317CE0075
:100248004E08BE00BF01C001C1013E08C4073F08F7
:1002580003110318013E03193229C5074008031189
:100268000318013E03193929C60741080311031869
:10027800013E03194029C7074F08BE00BF01C0014E
:10028800C1013E08CA073F0803110318013E0319BC
:100298004E29CB07400803110318013E03195529BD
:1002A800CC07410803110318013E03195C29CD0747
:1002B800831603136808A0006A080A168A11D22553
:1002C8000A128A1183160313210883160317CF0015
:1002D80083160313200883160317CE004E08BE00AA
:1002E800BF01C001C1013E08C4073F08031103183C
:1002F800013E03198029C507400803110318013E70
:1003080003198729C607410803110318013E031979
:100318008E29C7074F08BE00BF01C001C1013E08B2
:10032800CA073F0803110318013E03199C29CB078C
:10033800400803110318013E0319A329CC074108FB
:1003480003110318013E0319AA29CD070830BE007E
:100358000310C40DC50DC60DC70DBE0BAC29831601
:1003680003136708A0006A080A168A11D2250A1220
:100378008A1183160313210883160317CF008316E7
:100388000313200883160317CE004E08BE004F083B
:10039800BF00C001C1013E08C4073F08031103188C
:1003A800013E0319D829C507400803110318013E67
:1003B8000319DF29C607410803110318013E031971
:1003C800E629C707831603136608A0006B080A16F8
:1003D8008A11D2250A128A1183160313210883165B
:1003E8000317CF0083160313200883160317CE00C4
:1003F8004E08BE004F08BF00C001C1013E08C40737
:100408003F0803110318013E03190B2AC5074008CA
:1004180003110318013E0319122AC60741080311E4
:100428000318013E0319192AC7070830BE00031034
:10043800C40DC50DC60DC70DBE0B1B2A83160313AD
:100448006608A0006A080A168A11D2250A128A11BB
:1004580083160313210883160317CF00831603138B
:10046800200883160317CE004E08BE004F08BF00B1
:10047800C001C1013E08C4073F0803110318013E2B
:100488000319472AC507400803110318013E031939
:100498004E2AC607410803110318013E0319552ABD
:1004A800C707831603136708A0006C080A168A1189
:1004B800D2250A128A1183160313210883160317FB
:1004C800CF0083160313200883160317CE004E08A7
:1004D800BE004F08BF00C001C1013E08CA073F085F
:1004E80003110318013E03197A2ACB0740080311A8
:1004F8000318013E0319812ACC0741080311031888
:10050800013E0319882ACD07831603136808A00043
:100518006B080A168A11D2250A128A118316031348
:10052800210883160317CF008316031320088316A8
:100538000317CE004E08BE004F08BF00C001C1011E
:100548003E08CA073F0803110318013E0319AD2AE4
:10055800CB07400803110318013E0319B42ACC073E
:10056800410803110318013E0319BB2ACD0783165E
:1005780003136808A0006C080A168A11D2250A120B
:100588008A1183160313210883160317CF008316D5
:100598000313200883160317CE004E08BE004F0829
:1005A800BF00C001C10108300310BE0DBF0DC00D52
:1005B800C10DFF3E031DD82A3E08CA073F08031194
:1005C8000318013E0319E92ACB0740080311031851
:1005D800013E0319F02ACC07410803110318013E14
:1005E8000319F72ACD074408BE004508BF0046088E
:1005F800C0004708C10018300310C10CC00CBF0C64
:10060800BE0CFF3E031D002B3E08CA073F0803111E
:100618000318013E0319112BCB07400803110318D7
:10062800013E0319182BCC07410803110318013E9A
:1006380003191F2BCD070830BE000310C40DC50DCC
:10064800C60DC70DBE0B212B49084807BE00BF01C8
:10065800BF0D3E08823ECE003F080318013EFF3E14
:10066800CF00532B0130BE000310CA0DCB0DCC0DAB
:10067800CD0DBE0B382BC71F422B432B442B4A14DE
:100688000130BE000310C40DC50DC60DC70DBE0B4D
:10069800462BFF30CE070318CF0AFF30CF07CC1FF9
:1006A800562B572B362BC801C71F5B2B5C2B782B7F
:1006B800FF304405BE00FF304505BF00FF3046054A
:1006C800C0007F304705C100410840043F043E0494
:1006D80003196F2B702B732BC801C80A782B4A1C7F
:1006E800762B772B782B702B480803197C2B7D2BC6
:1006F800AE2B0130CA07003003180130CB07003099
:1007080003180130CC07003003180130CD074D1C09
:100718008E2B8F2BAE2B4A08BE004B08BF004C080F
:10072800C0004D08C1000130C200410DC10CC00C11
:10073800BF0CBE0CC20B992B4108CD004008CC0061
:100748003F08CB003E08CA000130CE070318CF0A85
:100758000030CF074F08803AFF0080307F02031D2A
:10076800B72BFF304E02031CBA2BBB2BC62B7F3096
:1007780083160317CD008030CC000030CB0000304A
:10078800CA00F72B831603174F08803AFF00803002
:100798007F02031DD12B01304E020318D42BD52B19
:1007A800E12B003083160317CD000030CC00003059
:1007B800CB000030CA00C301F72B831603174E087D
:1007C800C900FF30CA05FF30CB057F30CC050030AB
:1007D800CD05491CF02BF12BF22BCC174908BE0094
:1007E80003103E0CCD004308BE003E08CD044D0862
:1007F80083160313E900831603174C0883160313A3
:10080800E800831603174B0883160313E7008316C3
:1008180003174A0883160313E6000800831203131C
:1008280041088039CB004108C6004607D100C01FE7
:100838001E2C1F2C202C511451080319242C252C54
:10084800342C510A031D292C2A2C322C0030C100CB
:100858000030C0000030BF000030BE00C0173C2C84
:100868000030C1000030C0000030BF000030BE00C2
:1008780045088039C6004608CB064508C600460725
:10088800D000C41F482C492C4A2C50145008031976
:100898004E2C4F2C5E2C500A031D532C542C5C2CD0
:1008A8000030C5000030C4000030C3000030C20072
:1008B800C417662C0030C5000030C4000030C300E7
:1008C8000030C200500803196A2C6B2C702C510898
:1008D800031D6F2C702C792C0030C1000030C00033
:1008E8000030BF000030BE00562F3E08F00044081C
:1008F8000A168A11AB250A128A117108831203138A
:10090800D7007008D6005608C600C701C801C9013B
:100918004908CF004808CE004708CD004608CC005B
:100928005708C600C701C801C9014908D5004808C9
:10093800D4004708D3004608D2003F08F000430817
:100948000A168A11AB250A128A1171088312031339
:10095800D7007008D6005608C600C701C801C901EB
:100968004608CC07470803110318013E0319BD2C9C
:10097800CD07480803110318013E0319C42CCE07FC
:10098800490803110318013E0319CB2CCF07570858
:10099800C600C701C801C9014608D20747080311A4
:1009A8000318013E0319D92CD3074808031103186B
:1009B800013E0319E02CD407490803110318013E2E
:1009C8000319E72CD5074008F00042080A168A11D7
:1009D800AB250A128A11710883120313D700700815
:1009E800D6005608C600C701C801C9014608CC0789
:1009F800470803110318013E0319032DCD074808C2
:100A080003110318013E03190A2DCE0749080311E3
:100A18000318013E0319112DCF075708C600C70157
:100A2800C801C9014608D207470803110318013E47
:100A380003191F2DD307480803110318013E031992
:100A4800262DD407490803110318013E03192D2D3B
:100A5800D5070830C6000310CC0DCD0DCE0DCF0D37
:100A6800C60B2F2D3F08F00042080A168A11AB2545
:100A78000A128A11710883120313D7007008D6006E
:100A88005608C6005708C700C801C9014608CC0760
:100A9800470803110318013E0319532DCD074808D1
:100AA80003110318013E03195A2DCE0749080311F3
:100AB8000318013E0319612DCF073E08F0004308D3
:100AC8000A168A11AB250A128A11710883120313B8
:100AD800D7007008D6005608C6005708C700C801D6
:100AE800C9014608CC07470803110318013E03193A
:100AF8007E2DCD07480803110318013E0319852DE3
:100B0800CE07490803110318013E03198C2DCF079E
:100B18000830C6000310CC0DCD0DCE0DCF0DC60B81
:100B28008E2D3E08F00042080A168A11AB250A12DB
:100B38008A11710883120313D7007008D60056086B
:100B4800C6005708C700C801C9014608CC074708AE
:100B580003110318013E0319B22DCD0748080311EC
:100B68000318013E0319B92DCE07490803110318CC
:100B7800013E0319C02DCF073F08F00044080A16AC
:100B88008A11AB250A128A11710883120313D70040
:100B98007008D6005608C6005708C700C801C90122
:100BA8004608D207470803110318013E0319DD2D33
:100BB800D307480803110318013E0319E42DD4078D
:100BC800490803110318013E0319EB2DD507400806
:100BD800F00043080A168A11AB250A128A11710817
:100BE80083120313D7007008D6005608C6005708AA
:100BF800C700C801C9014608D207470803110318EE
:100C0800013E0319082ED307480803110318013EB3
:100C180003190F2ED407490803110318013E0319BD
:100C2800162ED5074008F00044080A168A11AB258D
:100C38000A128A11710883120313D7007008D600AC
:100C48005608C6005708C700C801C9010830031074
:100C5800C60DC70DC80DC90DFF3E031D2B2E460836
:100C6800D207470803110318013E03193C2ED30786
:100C7800480803110318013E0319432ED4074908F5
:100C880003110318013E03194A2ED5074C08C60064
:100C98004D08C7004E08C8004F08C9001830031097
:100CA800C90CC80CC70CC60CFF3E031D532E4608C2
:100CB800D207470803110318013E0319642ED3070E
:100CC800480803110318013E03196B2ED40749087D
:100CD80003110318013E0319722ED5070830C60008
:100CE8000310CC0DCD0DCE0DCF0DC60B742E5108B3
:100CF8005007C600C701C70D4608823ED600470800
:100D08000318013EFF3ED700A62E0130C60003108F
:100D1800D20DD30DD40DD50DC60B8B2ECF1F952E0E
:100D2800962E972E52140130C6000310CC0DCD0D0F
:100D3800CE0DCF0DC60B992EFF30D6070318D70A54
:100D4800FF30D707D41FA92EAA2E892ED001CF1F76
:100D5800AE2EAF2ECB2EFF304C05C600FF304D0512
:100D6800C700FF304E05C8007F304F05C90049084D
:100D78004804470446040319C22EC32EC62ED001C8
:100D8800D00ACB2E521CC92ECA2ECB2EC32E5008E9
:100D98000319CF2ED02E012F0130D20700300318AF
:100DA8000130D307003003180130D407003003188E
:100DB8000130D507551CE12EE22E012F5208C6003E
:100DC8005308C7005408C8005508C9000130CA00B4
:100DD800490DC90CC80CC70CC60CCA0BEC2E490827
:100DE800D5004808D4004708D3004608D20001308F
:100DF800D6070318D70A0030D7075708803AFF00EC
:100E080080307F02031D0A2FFF305602031C0D2F6E
:100E18000E2F192F7F3083120313D5008030D40092
:100E28000030D3000030D2004A2F83120313570832
:100E3800803AFF0080307F02031D242F01305602C4
:100E48000318272F282F342F003083120313D500BF
:100E58000030D4000030D3000030D200CB014A2F3C
:100E6800831203135608D100FF30D205FF30D30593
:100E78007F30D4050030D505511C432F442F452F12
:100E8800D4175108C6000310460CD5004B08C600FD
:100E98004608D5045508C1005408C0005308BF00CF
:100EA8005208BE00080004308316031759020030A8
:100EB800031958020318612F622FFC2F5808831654
:100EC8000313BE0083160317590883160313BF00C4
:100ED800C001C10100300A128A1596240A128A112B
:100EE800831603134108D3004008D2003F08D100FD
:100EF8003E08D0004430CF007F30CE00C030CD0057
:100F08000030CC000A128A152D260A128A1183167F
:100F180003134F08ED004E08EC004D08EB004C0899
:100F2800EA000A168A1103270A128A118316031384
:100F38003C08BE003D08BF000030BF1BFF30C000AA
:100F4800C10001300A128A1596240A128A118316E2
:100F580003134108E9004008E8003F08E7003E089D
:100F6800E6000A128A1151200A128A118316031305
:100F7800690883160317D3008316031368088316BA
:100F88000317D20083160313670883160317D100CB
:100F980083160313660883160317D0000A128A15EE
:100FA800B6200A128A11831603175108D90050086F
:100FB800D800831203139D12831603175818E52FC0
:100FC800E92F831203131D16EC2F831203131D122E
:100FD800831603175908DB005808DA000310DB0CE6
:100FE800DA0C0310DB0CDA0C5A08831203139B008B
:020FF8000800EF
:10100200003083160313BF000030BE000F30BD0056
:10101200A030BC000A168A1156270A128A1500301F
:1010220083160313BF000030BE000F30BD00A03096
:10103200BC000A168A11AB270A128A1500308316E1
:101042000317D800D9000A128A157E220A128A15BD
:10105200003083160317D800D9000A128A115727C5
:101062000A128A150A168A113A250A128A150A16CE
:101072008A1143250A128A150800031083120313EA
:101082005A0D5B0DE1006108031D482849285228CA
:101092000030DB000030DA000030D9000030D80028
:1010A200B5285808DC005908DD005A08DE005B0844
:1010B200DF001F300310DF0CDE0CDD0CDC0CFF3E0A
:1010C200031D5B285C08E000DA17FF30D805FF300B
:1010D200D905FF30DA050030DB059630E102E11F69
:1010E200732874288E286108803A973E03187A285C
:1010F2007B287C28492801300310DB0CDA0CD90C40
:10110200D80CFF3E031D7D280130DC005C08E1079E
:10111200031D8C288D287C28A52820306102031C01
:1011220093289428A02849280130DC000310D80D08
:10113200D90DDA0DDB0DDC0B97280130E1026108D5
:10114200031DA428A528952860080319A928AA2800
:10115200B528D809D909DA09DB09D80A0319D90A45
:101162000319DA0A0319DB0A0800031083160317AE
:10117200520D530D83160313EF006F08031DC2288F
:10118200C328CE28003083160317D3000030D200C4
:101192000030D1000030D0004329831603175008D5
:1011A200D4005108D5005208D6005308D7001F308A
:1011B2000310D70CD60CD50CD40CFF3E031DD92836
:1011C200540883160313EE0083160317D217FF3059
:1011D200D005FF30D105FF30D2050030D30596305F
:1011E20083160313EF02EF1FF728F82816296F085A
:1011F200803A973E0318FE28FF280029C3280130B1
:10120200031083160317D30CD20CD10CD00CFF3E63
:10121200031D01290130D400540883160313EF077C
:10122200031D142915290029312920306F02031CBE
:101232001B291C292C29C328013083160317D4002B
:101242000310D00DD10DD20DD30DD40B21290130B5
:1012520083160313EF026F08031D302931291D295C
:101262006E08031935293629432983160317D00935
:10127200D109D209D309D00A0319D10A0319D20A12
:101282000319D30A080083120313A901A31F4A29D1
:101292004B295829A009A109A209A309A00A0319E7
:1012A200A10A0319A20A0319A30AA901A90AA71FDD
:1012B2005B295C296B29A409A509A609A709A40A27
:1012C2000319A50A0319A60A0319A70A0130FD008A
:1012D2007D08A9060030AD000030AC000030AB0044
:1012E2000030AA00230822042104200403197A29C9
:1012F2007B29C829A801A80A8B290130FD00031007
:10130200A00DA10DA20DA30DFD0B80290130FD0042
:101312007D08A807A31F8E298F297E290130FD0091
:101322000310AA0DAB0DAC0DAD0DFD0B91292308D9
:101332002702031DA62922082602031DA629210829
:101342002502031DA62920082402031CA929AA2973
:10135200B9292008A4022108031C210FA502220892
:10136200031C220FA6022308031C230FA7022A1420
:1013720001300310A30CA20CA10CA00CFF3E031D14
:10138200BA290130A802031DC729C8298F292908B3
:101392000319CC29CD29D829AA09AB09AC09AD0971
:1013A200AA0A0319AB0A0319AC0A0319AD0A2D08DC
:1013B200A3002C08A2002B08A1002A08A000080004
:1013C20083160313B701B01FE729E829F529AD09F0
:1013D200AE09AF09B009AD0A0319AE0A0319AF0A83
:1013E2000319B00AB701B70AB41FF829F929082A64
:1013F200B109B209B309B409B10A0319B20A03194E
:10140200B30A0319B40A0130B5003508B706003033
:10141200BB000030BA000030B9000030B80030081C
:101422002F042E042D040319172A182A652AB6013F
:10143200B60A282A0130B5000310AD0DAE0DAF0D6E
:10144200B00DB50B1D2A0130B5003508B607B01F27
:101452002B2A2C2A1B2A0130B5000310B80DB90D16
:10146200BA0DBB0DB50B2E2A30083402031D432AD8
:101472002F083302031D432A2E083202031D432A7A
:101482002D083102031C462A472A562A2D08B1028A
:101492002E08031C2E0FB2022F08031C2F0FB302BB
:1014A2003008031C300FB402381401300310B00CA2
:1014B200AF0CAE0CAD0CFF3E031D572A0130B60235
:1014C200031D642A652A2C2A37080319692A6A2A05
:1014D200752AB809B909BA09BB09B80A0319B90AC0
:1014E2000319BA0A0319BB0A3B08B0003A08AF0055
:1014F2003908AE003808AD0008000430831603171F
:1015020059020030031958020318882A892A232B0A
:10151200580883160313BE0083160317590883164F
:101522000313BF00C001C10100300A128A159624BC
:101532000A128A15831603134108D3004008D20009
:101542003F08D1003E08D0004430CF007F30CE00AB
:10155200C030CD000030CC000A128A152D260A12A6
:101562008A15831603134F08ED004E08EC004D0850
:10157200EB004C08EA000A168A1103270A128A15A0
:10158200831603133C08BE003D08BF000030BF1B9A
:10159200FF30C000C10001300A128A1596240A12D7
:1015A2008A15831603134108E9004008E8003F0842
:1015B200E7003E08E6000A128A1151200A128A1533
:1015C20083160313690883160317D30083160313C4
:1015D200680883160317D20083160313670883165D
:1015E2000317D10083160313660883160317D0006E
:1015F2000A128A15B6200A128A1583160317510891
:10160200D9005008D80083120313971283160317C8
:1016120058180C2B102B831203131716132B83123B
:1016220003131712831603175908DB005808DA0050
:101632000310DB0CDA0C0310DB0CDA0C5A088312F1
:10164200031395000800003083160317DC00DD0049
:101652003230DE000030DF000A168A1132260A120A
:101662008A150B3083160317E2002630E1005D3045
:10167200E000E00B3A2BE10B3A2BE20B3A2B323033
:1016820083160317DC000030DD000030DE00DF00CF
:101692000A168A1132260A128A150B30831603178C
:1016A200E2002630E1005D30E000E00B562BE10B5A
:1016B200562BE20B562B003083160317DC00DD009D
:1016C200CE30DE00FF30DF000A168A1132260A12FF
:1016D2008A150B3083160317E2002630E1005D30D5
:1016E200E000E00B722BE10B722BE20B722BCE307F
:1016F20083160317DC00FF30DD000030DE00DF0060
:101702000A168A1132260A128A150B30831603171B
:10171200E2002630E1005D30E000E00B8E2BE10BB1
:101722008E2BE20B8E2B83120313091103308316C7
:101732000317E2008A30E1005530E000E00B9F2BF6
:10174200E10B9F2BE20B9F2B83120313091503302E
:1017520083160317E2008A30E1005530E000E00B07
:10176200B02BE10BB02BE20BB02B83120313091148
:10177200033083160317E2008A30E1005530E0009F
:10178200E00BC12BE10BC12BE20BC12B8312031324
:101792000915033083160317E2008A30E100553041
:1017A200E000E00BD22BE10BD22BE20BD22B831207
:1017B20003130911080083120313B8003808031930
:1017C200E32BE42BF82BB31FE72BE82BF82B300984
:1017D200BA003109BB003209BC003309BD00BA0AA4
:1017E2000319BB0A0319BC0A0319BD0A002C3308EA
:1017F200BD003208BC003108BB003008BA00330813
:10180200320431043004031D072C082C112C003043
:10181200B3000030B2000030B1000030B000952CAF
:101822009630B900212C0130B4003408B9070130D8
:101832000310BD0CBC0CBB0CBA0CFF3E031D192CD3
:10184200FE303D05031D262C272C142C432C013081
:10185200B4003408B9070130BA0700300318013068
:10186200BB07003003180130BC07003003180130F9
:10187200BD0701300310BD0CBC0CBB0CBA0CFF3E03
:10188200031D3B2CFF303D05031D482C492C282C01
:10189200552C0130B9020130B4000310BA0DBB0D52
:1018A200BC0DBD0DB40B4E2CBC1B582C592C5F2CFF
:1018B2000230390203185E2C5F2C4A2C3918622C34
:1018C200632C6B2CFF30BA05FF30BB057F30BC05A3
:1018D200FF30BD050310B90C3908B400B501B601DB
:1018E200B70118300310B40DB50DB60DB70DFF3E9C
:1018F200031D732C3408BA043508BB043608BC0433
:101902003708BD0438080319872C882C8D2CB31F87
:101912008B2C8C2C8D2CBD173D08B3003C08B200DB
:101922003B08B1003A08B000080083160313C60052
:10193200460803199D2C9E2CB22CC11FA12CA22C4F
:10194200B22C3E09C8003F09C9004009CA0041093A
:10195200CB00C80A0319C90A0319CA0A0319CB0A18
:10196200BA2C4108CB004008CA003F08C9003E0813
:10197200C800410840043F043E04031DC12CC22C90
:10198200CB2C0030C1000030C0000030BF0000305E
:10199200BE004F2D9630C700DB2C0130C20042083A
:1019A200C70701300310CB0CCA0CC90CC80CFF3E90
:1019B200031DD32CFE304B05031DE02CE12CCE2C55
:1019C200FD2C0130C2004208C7070130C8070030B1
:1019D20003180130C907003003180130CA0700306C
:1019E20003180130CB0701300310CB0CCA0CC90C11
:1019F200C80CFF3E031DF52CFF304B05031D022DC5
:101A0200032DE22C0F2D0130C7020130C20003105A
:101A1200C80DC90DCA0DCB0DC20B082DCA1B122D44
:101A2200132D192D023047020318182D192D042DDC
:101A320047181C2D1D2D252DFF30C805FF30C90567
:101A42007F30CA05FF30CB050310C70C4708C20020
:101A5200C301C401C50118300310C20DC30DC40D6A
:101A6200C50DFF3E031D2D2D4208C8044308C904BD
:101A72004408CA044508CB0446080319412D422DE7
:101A8200472DC11F452D462D472DCB174B08C100B1
:101A92004A08C0004908BF004808BE0008008B1C65
:101AA200532D542D222E0310091D031403185A2DF1
:101AB2005E2D831203130915612D8312031309117D
:101AC2000A168A11FB250A128A15831203132E089D
:101AD200B0002F08B1000030B11BFF30B200B300DC
:101AE20001300A128A15DC230A128A1583120313A3
:101AF2003308C5003208C4003108C3003008C200F0
:101B02000030C1000030C0000030BF000030BE0015
:101B12000A128A1112240A128A1583120313410827
:101B2200DB004008DA003F08D9003E08D8000A125C
:101B32008A153E200A128A15831203135908E900F6
:101B42005808E80097126818A72DAB2D83120313CB
:101B52001716AE2D8312031317126908E3006808E3
:101B6200E200630DE30CE20C630DE30CE20C62088D
:101B720095000A168A11FB250A128A15831203138D
:101B82002E08B0002F08B1000030B11BFF30B200A8
:101B9200B30001300A128A15DC230A128A15831255
:101BA20003133308C5003208C4003108C3003008EB
:101BB200C2000030C1000030C0000030BF00003061
:101BC200BE000A128A1112240A128A158312031302
:101BD2004108DB004008DA003F08D9003E08D8007F
:101BE2000A128A153E200A128A1583120313590813
:101BF200EB005808EA009D126A18002E042E831288
:101C020003131D16072E831203131D126B08E30024
:101C12006A08E200630DE30CE20C630DE30CE20CD4
:101C220062089B00063083120313E4001330E300C2
:101C3200AD30E200E20B1B2EE30B1B2EE40B1B2E3E
:101C42008B10831203136708FF0066088A00650E73
:101C52008300FE0E7E0E090083160313530880399B
:101C6200DD005308D4005407E400D21F392E3A2E67
:101C72003B2E6414640803193F2E402E502E640A32
:101C8200031D442E452E4D2E0030D3000030D200CD
:101C92000030D1000030D000D217D301582E0030CE
:101CA200D3000030D2000030D1000030D0004F0805
:101CB2008039D4005408DD064F08D4005407E500EB
:101CC200CE1F642E652E662E6514650803196A2ED2
:101CD2006B2E7B2E650A031D6F2E702E782E003020
:101CE200CF000030CE000030CD000030CC00CE1747
:101CF200CF01832E0030CF000030CE000030CD0067
:101D02000030CC004F084E044D044C04031D8A2EB3
:101D12008B2EA42E0030D3000030D2000030D10030
:101D22000030D0008030D2047F30D3045D08D4006C
:101D32005408D3045308CF005208CE005108CD00F6
:101D42005008CC00FF2F6408031DA82EA92EB22E26
:101D52000030CF000030CE000030CD000030CC008B
:101D6200FF2F6408D400D5015508D7006508540236
:101D7200D600031CD70356087F3EDE00570803181F
:101D8200013E003EDF005308DC005208DB00510830
:101D9200DA005008D9000030D3000030D200003001
:101DA200D1000030D0000030E3000030E20000300B
:101DB200E1000030E000E501282F65080319E22E5A
:101DC200E32E032F0130D4000310D90DDA0DDB0D01
:101DD200DC0DD40BE52E0130D4000310D00DD10D53
:101DE200D20DD30DD40BEE2EE31FF82EF92EFA2EC0
:101DF20050140130D4000310E00DE10DE20DE30DAB
:101E0200D40BFC2E4F085C02031D112F4E085B02FF
:101E1200031D112F4D085A02031D112F4C085902A0
:101E2200031C142F152F242F63174C08D9024D08B9
:101E3200031C4D0FDA024E08031C4E0FDB024F0843
:101E4200031C4F0FDC020130D4005408E5071A309E
:101E52006502031C2D2F2E2FDE2E5C085B045A0414
:101E620059040319352F362F552F6014552F013081
:101E7200D4000310D00DD10DD20DD30DD40B3A2FB7
:101E8200E31F442F452F462F50140130D400031076
:101E9200E00DE10DE20DE30DD40B482FFF30DE071C
:101EA2000318DF0AFF30DF07D21F582F592F382FB0
:101EB200E501E31F5D2F5E2F7A2FFF306005D4000E
:101EC200FF306105D500FF306205D6007F30630523
:101ED200D70057085604550454040319712F722F62
:101EE200752FE501E50A7A2F501C782F792F7A2F6A
:101EF200722F650803197E2F7F2FB02F0130D00774
:101F0200003003180130D107003003180130D20726
:101F1200003003180130D307531C902F912FB02F9C
:101F22005008D4005108D5005208D6005308D700F3
:101F32000130D800570DD70CD60CD50CD40CD80BC9
:101F42009B2F5708D3005608D2005508D1005408D9
:101F5200D0000130DE070318DF0A0030DF075F0818
:101F6200803AFF0080307F02031DB92FFF305E02EE
:101F7200031CBC2FBD2FCB2FFF3083160313DE00B3
:101F82000030DF000030D3000030D2000030D1003A
:101F92000030D000831603135F08803AFF008030C0
:101FA2007F02031DD62F01305E020318D92FDA2FCC
:101FB200E72F83160313DE01DF010030D300003068
:101FC200D2000030D1000030D000DD0183160313AF
:101FD2005E08E400641CEE2FEF2FF12FD217F52FCD
:101FE2007F30D4005408D2056408D4000310540C86
:0E1FF200D3005D08D4005408D3049B2E0800D1
:102A5C00043400340034003464008001840A040619
:102A6C00031900340406332D83120313971517151D
:102A7C0012158316031307110800831203139D15F7
:102A8C001D1512158316031387100800C834003463
:102A9C0055340034AF34003464340034E834033437
:102AAC00003400340A34D73423343B349334183490
:102ABC00943440348F34C23475343E347E088A00EA
:102ACC007F0882000A168A1164250A168A11800072
:102ADC00840A04087D0603190034FF0A0319FE0A50
:102AEC00682D0A168A1190250A168A110A128A155F
:102AFC0001200A168A1183120313051C862D872DBB
:102B0C00812D0A128A1524230A168A11812D0A1284
:102B1C008A1110288B170B170B168B1083160313A7
:102B2C0001170F3085000330860090308700FF308E
:102B3C008800890106309F008312031385018601EA
:102B4C0087018801890107140800F800F401F501D8
:102B5C007008F200F3017208F6007308F700781C95
:102B6C00B82DB92DBF2D7608F4070318F50A770890
:102B7C00F50701300310F60DF70DFF3E031DC02DB8
:102B8C000310F80C7808031DCC2DCD2DB52D750830
:102B9C00F1007408F000080083160313A800A401C8
:102BAC00A5012008A200A3012208A6002308A70063
:102BBC00281CE12DE22DE82D2608A4070318A50AF0
:102BCC002708A50701300310A60DA70DFF3E031D16
:102BDC00E92D0310A80C2808031DF52DF62DDE2D6C
:102BEC002508A1002408A0000800831603176E080E
:102BFC00F3006D08F2006C08F1006B08F000831212
:102C0C0003136F08F7006E08F6006D08F5006C08EA
:102C1C00F4000A168A1175260A168A117308831293
:102C2C000313A3007208A2007108A1007008A00091
:102C3C000030A7003D30A6000930A5000030A400EC
:102C4C000A128A1544210A168A11831203132108C9
:102C5C00AF002008AE00080083160317DD1B372ECB
:102C6C00382E3D2E8312031306158611482E83121F
:102C7C0003130611861583160317DC09DD09DC0A1C
:102C8C000319DD0A831603175D08D9005C08D80008
:102C9C000A128A1157270A168A1183160317DF1B8B
:102CAC00582E592E5E2E8312031306168612692E89
:102CBC00831203130612861683160317DE09DF0927
:102CCC00DE0A0319DF0A831603175F08D9005E08B2
:102CDC00D8000A128A157E220A168A1108000030C2
:102CEC00FC000030FB000030FA000030F900701CD2
:102CFC00802E812E982E7408F9077508031103187D
:102D0C00013E03198A2EFA07760803110318013EB7
:102D1C000319912EFB07770803110318013E0319C1
:102D2C00982EFC070130F8000310F40DF50DF60D8C
:102D3C00F70DF80B9A2E01300310F30CF20CF10C7A
:102D4C00F00CFF3E031DA22E730872047104700474
:102D5C00031DB12EB22E7D2E7C08F3007B08F200F1
:102D6C007A08F1007908F00008000030831603138C
:102D7C00AC000030AB000030AA000030A900201CD1
:102D8C00C82EC92EE02E2408A90725080311031804
:102D9C00013E0319D22EAA07260803110318013E7F
:102DAC000319D92EAB07270803110318013E031989
:102DBC00E02EAC070130A8000310A40DA50DA60D44
:102DCC00A70DA80BE22E01300310A30CA20CA10C32
:102DDC00A00CFF3E031DEA2E23082204210420042C
:102DEC00031DF92EFA2EC52E2C08A3002B08A200C9
:102DFC002A08A1002908A0000800831603176E08F2
:102E0C0083160313A300831603176D08831603138D
:102E1C00A200831603176C0883160313A1008316F4
:102E2C0003176B0883160313A000831203136F0898
:102E3C0083160313A700831203136E088316031360
:102E4C00A600831203136D0883160313A5008312C7
:102E5C0003136C0883160313A4000A168A11BB26ED
:102E6C000A168A11831603132308B0002208AF0038
:102E7C002108AE002008AD000030B4003D30B30096
:102E8C000930B2000030B1000A128A15E1210A168D
:102E9C008A11831603132E08BD002D08BC000800F0
:102EAC00831603133C08C0003D08C1003E08C20055
:102EBC003F08C30002300310C00DC10DC20DC30D7D
:102ECC00FF3E031D612F4308A3004208A2004108E6
:102EDC00A1004008A000831203136F08831603138C
:102EEC00A700831203136E0883160313A600831224
:102EFC0003136D0883160313A500831203136C08C8
:102F0C0083160313A4000A168A11BB260A168A110B
:102F1C00831603132308B0002208AF002108AE006B
:102F2C002008AD000030B4003D30B3000930B200D1
:102F3C000030B1000A128A15E1210A168A11831693
:102F4C0003132D08FF3E92000800831603133C0860
:102F5C00C0003D08C1003E08C2003F08C30002305B
:102F6C000310C00DC10DC20DC30DFF3E031DB62FC6
:102F7C004308A3004208A2004108A1004008A00099
:102F8C00831203136F0883160313A7008312031312
:102F9C006E0883160313A600831203136D088316A1
:102FAC000313A500831203136C0883160313A400E8
:102FBC000A168A11BB260A168A11831603132308D4
:102FCC00B0002208AF002108AE002008AD00003090
:102FDC00B4003D30B3000930B2000030B1000A1229
:102FEC008A15E1210A168A11831603132D08FF3E58
:042FFC009200080037
:08400000FF3FFF3FFF3FFF3FC0
:02400E00393F38
:00000001FF
